{"abi":[{"type":"constructor","inputs":[{"name":"_usdt","type":"address","internalType":"address"},{"name":"_usdc","type":"address","internalType":"address"},{"name":"_cofounder","type":"address","internalType":"address"}],"stateMutability":"nonpayable"},{"type":"function","name":"USDC","inputs":[],"outputs":[{"name":"","type":"address","internalType":"contract IERC20"}],"stateMutability":"view"},{"type":"function","name":"USDT","inputs":[],"outputs":[{"name":"","type":"address","internalType":"contract IERC20"}],"stateMutability":"view"},{"type":"function","name":"allowance","inputs":[{"name":"owner","type":"address","internalType":"address"},{"name":"spender","type":"address","internalType":"address"}],"outputs":[{"name":"","type":"uint256","internalType":"uint256"}],"stateMutability":"view"},{"type":"function","name":"approve","inputs":[{"name":"spender","type":"address","internalType":"address"},{"name":"value","type":"uint256","internalType":"uint256"}],"outputs":[{"name":"","type":"bool","internalType":"bool"}],"stateMutability":"nonpayable"},{"type":"function","name":"balanceOf","inputs":[{"name":"account","type":"address","internalType":"address"}],"outputs":[{"name":"","type":"uint256","internalType":"uint256"}],"stateMutability":"view"},{"type":"function","name":"buyWithUSDC","inputs":[{"name":"usdcAmount","type":"uint256","internalType":"uint256"}],"outputs":[],"stateMutability":"nonpayable"},{"type":"function","name":"buyWithUSDT","inputs":[{"name":"usdtAmount","type":"uint256","internalType":"uint256"}],"outputs":[],"stateMutability":"nonpayable"},{"type":"function","name":"calculateTokenAmount","inputs":[{"name":"usdAmount","type":"uint256","internalType":"uint256"}],"outputs":[{"name":"","type":"uint256","internalType":"uint256"}],"stateMutability":"view"},{"type":"function","name":"cofounderVesting","inputs":[],"outputs":[{"name":"","type":"address","internalType":"contract TokenVesting"}],"stateMutability":"view"},{"type":"function","name":"decimals","inputs":[],"outputs":[{"name":"","type":"uint8","internalType":"uint8"}],"stateMutability":"view"},{"type":"function","name":"getCofounderVestingInfo","inputs":[],"outputs":[{"name":"vestingContract","type":"address","internalType":"address"},{"name":"beneficiary","type":"address","internalType":"address"},{"name":"totalAmount","type":"uint256","internalType":"uint256"},{"name":"released","type":"uint256","internalType":"uint256"},{"name":"releasable","type":"uint256","internalType":"uint256"},{"name":"isRevoked","type":"bool","internalType":"bool"}],"stateMutability":"view"},{"type":"function","name":"getContractBalances","inputs":[],"outputs":[{"name":"usdtBalance","type":"uint256","internalType":"uint256"},{"name":"usdcBalance","type":"uint256","internalType":"uint256"}],"stateMutability":"view"},{"type":"function","name":"getSaleStats","inputs":[],"outputs":[{"name":"currentPrice","type":"uint256","internalType":"uint256"},{"name":"tokensSold","type":"uint256","internalType":"uint256"},{"name":"raisedUSDT","type":"uint256","internalType":"uint256"},{"name":"raisedUSDC","type":"uint256","internalType":"uint256"},{"name":"remainingTokens","type":"uint256","internalType":"uint256"},{"name":"isActive","type":"bool","internalType":"bool"}],"stateMutability":"view"},{"type":"function","name":"mintTokens","inputs":[{"name":"amount","type":"uint256","internalType":"uint256"}],"outputs":[],"stateMutability":"nonpayable"},{"type":"function","name":"name","inputs":[],"outputs":[{"name":"","type":"string","internalType":"string"}],"stateMutability":"view"},{"type":"function","name":"owner","inputs":[],"outputs":[{"name":"","type":"address","internalType":"address"}],"stateMutability":"view"},{"type":"function","name":"renounceOwnership","inputs":[],"outputs":[],"stateMutability":"nonpayable"},{"type":"function","name":"revokeCofounderVesting","inputs":[],"outputs":[],"stateMutability":"nonpayable"},{"type":"function","name":"saleActive","inputs":[],"outputs":[{"name":"","type":"bool","internalType":"bool"}],"stateMutability":"view"},{"type":"function","name":"setSaleActive","inputs":[{"name":"_active","type":"bool","internalType":"bool"}],"outputs":[],"stateMutability":"nonpayable"},{"type":"function","name":"setTokenPrice","inputs":[{"name":"newPrice","type":"uint256","internalType":"uint256"}],"outputs":[],"stateMutability":"nonpayable"},{"type":"function","name":"symbol","inputs":[],"outputs":[{"name":"","type":"string","internalType":"string"}],"stateMutability":"view"},{"type":"function","name":"tokenPrice","inputs":[],"outputs":[{"name":"","type":"uint256","internalType":"uint256"}],"stateMutability":"view"},{"type":"function","name":"totalRaisedUSDC","inputs":[],"outputs":[{"name":"","type":"uint256","internalType":"uint256"}],"stateMutability":"view"},{"type":"function","name":"totalRaisedUSDT","inputs":[],"outputs":[{"name":"","type":"uint256","internalType":"uint256"}],"stateMutability":"view"},{"type":"function","name":"totalSold","inputs":[],"outputs":[{"name":"","type":"uint256","internalType":"uint256"}],"stateMutability":"view"},{"type":"function","name":"totalSupply","inputs":[],"outputs":[{"name":"","type":"uint256","internalType":"uint256"}],"stateMutability":"view"},{"type":"function","name":"transfer","inputs":[{"name":"to","type":"address","internalType":"address"},{"name":"value","type":"uint256","internalType":"uint256"}],"outputs":[{"name":"","type":"bool","internalType":"bool"}],"stateMutability":"nonpayable"},{"type":"function","name":"transferFrom","inputs":[{"name":"from","type":"address","internalType":"address"},{"name":"to","type":"address","internalType":"address"},{"name":"value","type":"uint256","internalType":"uint256"}],"outputs":[{"name":"","type":"bool","internalType":"bool"}],"stateMutability":"nonpayable"},{"type":"function","name":"transferOwnership","inputs":[{"name":"newOwner","type":"address","internalType":"address"}],"outputs":[],"stateMutability":"nonpayable"},{"type":"function","name":"withdrawUSDC","inputs":[],"outputs":[],"stateMutability":"nonpayable"},{"type":"function","name":"withdrawUSDT","inputs":[],"outputs":[],"stateMutability":"nonpayable"},{"type":"function","name":"withdrawUnsoldTokens","inputs":[],"outputs":[],"stateMutability":"nonpayable"},{"type":"event","name":"Approval","inputs":[{"name":"owner","type":"address","indexed":true,"internalType":"address"},{"name":"spender","type":"address","indexed":true,"internalType":"address"},{"name":"value","type":"uint256","indexed":false,"internalType":"uint256"}],"anonymous":false},{"type":"event","name":"CofounderVestingCreated","inputs":[{"name":"vestingContract","type":"address","indexed":false,"internalType":"address"},{"name":"amount","type":"uint256","indexed":false,"internalType":"uint256"}],"anonymous":false},{"type":"event","name":"FundsWithdrawn","inputs":[{"name":"token","type":"address","indexed":false,"internalType":"address"},{"name":"amount","type":"uint256","indexed":false,"internalType":"uint256"}],"anonymous":false},{"type":"event","name":"OwnershipTransferred","inputs":[{"name":"previousOwner","type":"address","indexed":true,"internalType":"address"},{"name":"newOwner","type":"address","indexed":true,"internalType":"address"}],"anonymous":false},{"type":"event","name":"PriceUpdated","inputs":[{"name":"oldPrice","type":"uint256","indexed":false,"internalType":"uint256"},{"name":"newPrice","type":"uint256","indexed":false,"internalType":"uint256"}],"anonymous":false},{"type":"event","name":"SaleStatusChanged","inputs":[{"name":"active","type":"bool","indexed":false,"internalType":"bool"}],"anonymous":false},{"type":"event","name":"TokensMinted","inputs":[{"name":"amountToOwner","type":"uint256","indexed":false,"internalType":"uint256"},{"name":"amountToContract","type":"uint256","indexed":false,"internalType":"uint256"}],"anonymous":false},{"type":"event","name":"TokensPurchased","inputs":[{"name":"buyer","type":"address","indexed":true,"internalType":"address"},{"name":"demiAmount","type":"uint256","indexed":false,"internalType":"uint256"},{"name":"paymentAmount","type":"uint256","indexed":false,"internalType":"uint256"},{"name":"paymentToken","type":"address","indexed":false,"internalType":"address"}],"anonymous":false},{"type":"event","name":"Transfer","inputs":[{"name":"from","type":"address","indexed":true,"internalType":"address"},{"name":"to","type":"address","indexed":true,"internalType":"address"},{"name":"value","type":"uint256","indexed":false,"internalType":"uint256"}],"anonymous":false},{"type":"error","name":"ERC20InsufficientAllowance","inputs":[{"name":"spender","type":"address","internalType":"address"},{"name":"allowance","type":"uint256","internalType":"uint256"},{"name":"needed","type":"uint256","internalType":"uint256"}]},{"type":"error","name":"ERC20InsufficientBalance","inputs":[{"name":"sender","type":"address","internalType":"address"},{"name":"balance","type":"uint256","internalType":"uint256"},{"name":"needed","type":"uint256","internalType":"uint256"}]},{"type":"error","name":"ERC20InvalidApprover","inputs":[{"name":"approver","type":"address","internalType":"address"}]},{"type":"error","name":"ERC20InvalidReceiver","inputs":[{"name":"receiver","type":"address","internalType":"address"}]},{"type":"error","name":"ERC20InvalidSender","inputs":[{"name":"sender","type":"address","internalType":"address"}]},{"type":"error","name":"ERC20InvalidSpender","inputs":[{"name":"spender","type":"address","internalType":"address"}]},{"type":"error","name":"OwnableInvalidOwner","inputs":[{"name":"owner","type":"address","internalType":"address"}]},{"type":"error","name":"OwnableUnauthorizedAccount","inputs":[{"name":"account","type":"address","internalType":"address"}]},{"type":"error","name":"ReentrancyGuardReentrantCall","inputs":[]}],"bytecode":{"object":"0x60c060405234801562000010575f80fd5b5060405162002a5e38038062002a5e833981016040819052620000339162000467565b336040518060400160405280600481526020016344656d6960e01b8152506040518060400160405280600481526020016344454d4960e01b81525081600390816200007f91906200054e565b5060046200008e82826200054e565b5050506001600160a01b038116620000c057604051631e4fbdf760e01b81525f60048201526024015b60405180910390fd5b620000cb8162000281565b5060016006556001600160a01b038116620001295760405162461bcd60e51b815260206004820152601960248201527f496e76616c696420636f666f756e6465722061646472657373000000000000006044820152606401620000b7565b6001600160a01b03808416608052821660a05262000166620001536005546001600160a01b031690565b6b0554d9173ae4d397b2000000620002d2565b5f6a887c1bec4a1528c500000090505f6303c267009050823083836040516200018f906200043d565b6001600160a01b03948516815293909216602084015260408301526060820152608001604051809103905ff080158015620001cc573d5f803e3d5ffd5b50600c80546001600160a01b0319166001600160a01b039290921691909117905562000205306b04cc5cfb4e9abe6eed000000620002d2565b600c546200021d906001600160a01b031683620002d2565b6127106007556008805460ff19166001179055600c54604080516001600160a01b039092168252602082018490527f9999e472ab9916885f6620dc27aab8ad0de90cf2f4870e37a937ce566c86dee9910160405180910390a150505050506200063c565b600580546001600160a01b038381166001600160a01b0319831681179093556040519116919082907f8be0079c531659141344cd1fd0a4f28419497f9722a3daafe3b4186f6b6457e0905f90a35050565b6001600160a01b038216620002fd5760405163ec442f0560e01b81525f6004820152602401620000b7565b6200030a5f83836200030e565b5050565b6001600160a01b0383166200033c578060025f82825462000330919062000616565b90915550620003ae9050565b6001600160a01b0383165f9081526020819052604090205481811015620003905760405163391434e360e21b81526001600160a01b03851660048201526024810182905260448101839052606401620000b7565b6001600160a01b0384165f9081526020819052604090209082900390555b6001600160a01b038216620003cc57600280548290039055620003ea565b6001600160a01b0382165f9081526020819052604090208054820190555b816001600160a01b0316836001600160a01b03167fddf252ad1be2c89b69c2b068fc378daa952ba7f163c4a11628f55a4df523b3ef836040516200043091815260200190565b60405180910390a3505050565b61075e806200230083390190565b80516001600160a01b038116811462000462575f80fd5b919050565b5f805f606084860312156200047a575f80fd5b62000485846200044b565b925062000495602085016200044b565b9150620004a5604085016200044b565b90509250925092565b634e487b7160e01b5f52604160045260245ffd5b600181811c90821680620004d757607f821691505b602082108103620004f657634e487b7160e01b5f52602260045260245ffd5b50919050565b601f82111562000549575f81815260208120601f850160051c81016020861015620005245750805b601f850160051c820191505b81811015620005455782815560010162000530565b5050505b505050565b81516001600160401b038111156200056a576200056a620004ae565b62000582816200057b8454620004c2565b84620004fc565b602080601f831160018114620005b8575f8415620005a05750858301515b5f19600386901b1c1916600185901b17855562000545565b5f85815260208120601f198616915b82811015620005e857888601518255948401946001909101908401620005c7565b50858210156200060657878501515f19600388901b60f8161c191681555b5050505050600190811b01905550565b808201808211156200063657634e487b7160e01b5f52601160045260245ffd5b92915050565b60805160a051611c4e620006b25f395f81816103700152818161107d015281816111830152818161126d0152818161132701528181611425015261154f01525f818161043001528181610687015281816107460152818161084401528181610e0d01528181610f1301526114d10152611c4e5ff3fe608060405234801561000f575f80fd5b50600436106101f2575f3560e01c806389a3027111610114578063aeccf735116100a9578063dd62ed3e11610079578063dd62ed3e14610462578063f02cbb951461049a578063f2fde38b146104a3578063fdba1d05146104b6578063ffd2a7d3146104c9575f80fd5b8063aeccf73514610418578063c54e44eb1461042b578063c8bdbfb614610452578063d8fc063d1461045a575f80fd5b806397304ced116100e457806397304ced146103cc578063a24bcf46146103df578063a7c60160146103f2578063a9059cbb14610405575f80fd5b806389a302711461036b5780638da5cb5b146103aa5780639106d7ba146103bb57806395d89b41146103c4575f80fd5b8063362e496b1161018a57806370a082311161015a57806370a082311461031f578063715018a6146103475780637ff9b5961461034f578063841718a614610358575f80fd5b8063362e496b146102b5578063432b1e4a146102bd57806368428a1b146102ff5780636a61e5fc1461030c575f80fd5b806318160ddd116101c557806318160ddd1461027857806323b872dd1461028a5780632675249b1461029d578063313ce567146102a6575f80fd5b806306fdde03146101f6578063095ea7b3146102145780630ba0617214610237578063136ea67414610241575b5f80fd5b6101fe6104e6565b60405161020b9190611985565b60405180910390f35b6102276102223660046119e4565b610576565b604051901515815260200161020b565b61023f61058f565b005b6102496105fb565b6040805196875260208701959095529385019290925260608401526080830152151560a082015260c00161020b565b6002545b60405190815260200161020b565b610227610298366004611a0e565b610645565b61027c600a5481565b6040516012815260200161020b565b61023f610668565b6102c561089c565b604080516001600160a01b0397881681529690951660208701529385019290925260608401526080830152151560a082015260c00161020b565b6008546102279060ff1681565b61023f61031a366004611a4c565b610af8565b61027c61032d366004611a63565b6001600160a01b03165f9081526020819052604090205490565b61023f610b95565b61027c60075481565b61023f610366366004611a92565b610ba8565b6103927f000000000000000000000000000000000000000000000000000000000000000081565b6040516001600160a01b03909116815260200161020b565b6005546001600160a01b0316610392565b61027c60095481565b6101fe610bf1565b61023f6103da366004611a4c565b610c00565b61027c6103ed366004611a4c565b610cf4565b61023f610400366004611a4c565b610d15565b6102276104133660046119e4565b610f78565b61023f610426366004611a4c565b610f85565b6103927f000000000000000000000000000000000000000000000000000000000000000081565b61023f6111d6565b61023f61124e565b61027c610470366004611aad565b6001600160a01b039182165f90815260016020908152604080832093909416825291909152205490565b61027c600b5481565b61023f6104b1366004611a63565b611476565b600c54610392906001600160a01b031681565b6104d16114b0565b6040805192835260208301919091520161020b565b6060600380546104f590611ae4565b80601f016020809104026020016040519081016040528092919081815260200182805461052190611ae4565b801561056c5780601f106105435761010080835404028352916020019161056c565b820191905f5260205f20905b81548152906001019060200180831161054f57829003601f168201915b5050505050905090565b5f336105838185856115c8565b60019150505b92915050565b6105976115da565b600c5f9054906101000a90046001600160a01b03166001600160a01b031663b6549f756040518163ffffffff1660e01b81526004015f604051808303815f87803b1580156105e3575f80fd5b505af11580156105f5573d5f803e3d5ffd5b50505050565b5f805f805f80600754600954600a54600b5461062b306001600160a01b03165f9081526020819052604090205490565b600854949b939a509198509650945060ff90911692509050565b5f33610652858285611607565b61065d85858561167d565b506001949350505050565b6106706115da565b6040516370a0823160e01b81523060048201525f907f00000000000000000000000000000000000000000000000000000000000000006001600160a01b0316906370a0823190602401602060405180830381865afa1580156106d4573d5f803e3d5ffd5b505050506040513d601f19601f820116820180604052508101906106f89190611b1c565b90505f81116107445760405162461bcd60e51b81526020600482015260136024820152724e6f205553445420746f20776974686472617760681b60448201526064015b60405180910390fd5b7f00000000000000000000000000000000000000000000000000000000000000006001600160a01b031663a9059cbb6107856005546001600160a01b031690565b6040516001600160e01b031960e084901b1681526001600160a01b039091166004820152602481018490526044016020604051808303815f875af11580156107cf573d5f803e3d5ffd5b505050506040513d601f19601f820116820180604052508101906107f39190611b33565b6108365760405162461bcd60e51b81526020600482015260146024820152731554d115081d1c985b9cd9995c8819985a5b195960621b604482015260640161073b565b604080516001600160a01b037f0000000000000000000000000000000000000000000000000000000000000000168152602081018390527feaff4b37086828766ad3268786972c0cd24259d4c87a80f9d3963a3c3d999b0d91015b60405180910390a150565b600c54604080516338af3eed60e01b815290515f92839283928392839283926001600160a01b039092169182916338af3eed9160048083019260209291908290030181865afa1580156108f1573d5f803e3d5ffd5b505050506040513d601f19601f820116820180604052508101906109159190611b4e565b600c5f9054906101000a90046001600160a01b03166001600160a01b0316631a39d8ef6040518163ffffffff1660e01b8152600401602060405180830381865afa158015610965573d5f803e3d5ffd5b505050506040513d601f19601f820116820180604052508101906109899190611b1c565b600c5f9054906101000a90046001600160a01b03166001600160a01b031663961325216040518163ffffffff1660e01b8152600401602060405180830381865afa1580156109d9573d5f803e3d5ffd5b505050506040513d601f19601f820116820180604052508101906109fd9190611b1c565b600c5f9054906101000a90046001600160a01b03166001600160a01b0316635b9400816040518163ffffffff1660e01b8152600401602060405180830381865afa158015610a4d573d5f803e3d5ffd5b505050506040513d601f19601f82011682018060405250810190610a719190611b1c565b600c5f9054906101000a90046001600160a01b03166001600160a01b03166363d256ce6040518163ffffffff1660e01b8152600401602060405180830381865afa158015610ac1573d5f803e3d5ffd5b505050506040513d601f19601f82011682018060405250810190610ae59190611b33565b949b939a50919850965094509092509050565b610b006115da565b5f8111610b4f5760405162461bcd60e51b815260206004820152601c60248201527f5072696365206d7573742062652067726561746572207468616e203000000000604482015260640161073b565b600780549082905560408051828152602081018490527f945c1c4e99aa89f648fbfe3df471b916f719e16d960fcec0737d4d56bd69683891015b60405180910390a15050565b610b9d6115da565b610ba65f6116da565b565b610bb06115da565b6008805460ff19168215159081179091556040519081527ff3637cdf61687bb87179d2da614bc1f4aa93c3cbf40282ccd0a15ecad9184cc190602001610891565b6060600480546104f590611ae4565b610c086115da565b5f8111610c275760405162461bcd60e51b815260040161073b90611b69565b610c32600282611bb4565b15610c8b5760405162461bcd60e51b815260206004820152602360248201527f416d6f756e74206d757374206265206576656e20666f722035302f35302073706044820152621b1a5d60ea1b606482015260840161073b565b5f610c97600283611bdb565b9050610cb4610cae6005546001600160a01b031690565b8261172b565b610cbe308261172b565b60408051828152602081018390527fc61c8e2899bd86923bda7268d6d1b42d8e644ff3dedc13d41d5b798e4aa352379101610b89565b6007545f90610d0b83670de0b6b3a7640000611bee565b6105899190611bdb565b610d1d611763565b60085460ff16610d615760405162461bcd60e51b815260206004820152600f60248201526e53616c65206e6f742061637469766560881b604482015260640161073b565b5f8111610d805760405162461bcd60e51b815260040161073b90611b69565b5f610d8a82610cf4565b305f90815260208190526040902054909150811115610deb5760405162461bcd60e51b815260206004820152601d60248201527f496e73756666696369656e742044454d4920696e20636f6e7472616374000000604482015260640161073b565b6040516323b872dd60e01b8152336004820152306024820152604481018390527f00000000000000000000000000000000000000000000000000000000000000006001600160a01b0316906323b872dd906064016020604051808303815f875af1158015610e5b573d5f803e3d5ffd5b505050506040513d601f19601f82011682018060405250810190610e7f9190611b33565b610ec25760405162461bcd60e51b81526020600482015260146024820152731554d115081d1c985b9cd9995c8819985a5b195960621b604482015260640161073b565b610ecd30338361167d565b8060095f828254610ede9190611c05565b9250508190555081600a5f828254610ef69190611c05565b909155505060408051828152602081018490526001600160a01b037f0000000000000000000000000000000000000000000000000000000000000000169181019190915233907ffee6df20e0b882b05ab84bcc40a45ff3e3ae8062e60ed6ea21c021d96f822b2f906060015b60405180910390a250610f756001600655565b50565b5f3361058381858561167d565b610f8d611763565b60085460ff16610fd15760405162461bcd60e51b815260206004820152600f60248201526e53616c65206e6f742061637469766560881b604482015260640161073b565b5f8111610ff05760405162461bcd60e51b815260040161073b90611b69565b5f610ffa82610cf4565b305f9081526020819052604090205490915081111561105b5760405162461bcd60e51b815260206004820152601d60248201527f496e73756666696369656e742044454d4920696e20636f6e7472616374000000604482015260640161073b565b6040516323b872dd60e01b8152336004820152306024820152604481018390527f00000000000000000000000000000000000000000000000000000000000000006001600160a01b0316906323b872dd906064016020604051808303815f875af11580156110cb573d5f803e3d5ffd5b505050506040513d601f19601f820116820180604052508101906110ef9190611b33565b6111325760405162461bcd60e51b81526020600482015260146024820152731554d110c81d1c985b9cd9995c8819985a5b195960621b604482015260640161073b565b61113d30338361167d565b8060095f82825461114e9190611c05565b9250508190555081600b5f8282546111669190611c05565b909155505060408051828152602081018490526001600160a01b037f0000000000000000000000000000000000000000000000000000000000000000169181019190915233907ffee6df20e0b882b05ab84bcc40a45ff3e3ae8062e60ed6ea21c021d96f822b2f90606001610f62565b6111de6115da565b305f90815260208190526040902054806112325760405162461bcd60e51b81526020600482015260156024820152744e6f20746f6b656e7320746f20776974686472617760581b604482015260640161073b565b610f75306112486005546001600160a01b031690565b8361167d565b6112566115da565b6040516370a0823160e01b81523060048201525f907f00000000000000000000000000000000000000000000000000000000000000006001600160a01b0316906370a0823190602401602060405180830381865afa1580156112ba573d5f803e3d5ffd5b505050506040513d601f19601f820116820180604052508101906112de9190611b1c565b90505f81116113255760405162461bcd60e51b81526020600482015260136024820152724e6f205553444320746f20776974686472617760681b604482015260640161073b565b7f00000000000000000000000000000000000000000000000000000000000000006001600160a01b031663a9059cbb6113666005546001600160a01b031690565b6040516001600160e01b031960e084901b1681526001600160a01b039091166004820152602481018490526044016020604051808303815f875af11580156113b0573d5f803e3d5ffd5b505050506040513d601f19601f820116820180604052508101906113d49190611b33565b6114175760405162461bcd60e51b81526020600482015260146024820152731554d110c81d1c985b9cd9995c8819985a5b195960621b604482015260640161073b565b604080516001600160a01b037f0000000000000000000000000000000000000000000000000000000000000000168152602081018390527feaff4b37086828766ad3268786972c0cd24259d4c87a80f9d3963a3c3d999b0d9101610891565b61147e6115da565b6001600160a01b0381166114a757604051631e4fbdf760e01b81525f600482015260240161073b565b610f75816116da565b6040516370a0823160e01b81523060048201525f9081906001600160a01b037f000000000000000000000000000000000000000000000000000000000000000016906370a0823190602401602060405180830381865afa158015611516573d5f803e3d5ffd5b505050506040513d601f19601f8201168201806040525081019061153a9190611b1c565b6040516370a0823160e01b81523060048201527f00000000000000000000000000000000000000000000000000000000000000006001600160a01b0316906370a0823190602401602060405180830381865afa15801561159c573d5f803e3d5ffd5b505050506040513d601f19601f820116820180604052508101906115c09190611b1c565b915091509091565b6115d5838383600161178d565b505050565b6005546001600160a01b03163314610ba65760405163118cdaa760e01b815233600482015260240161073b565b6001600160a01b038381165f908152600160209081526040808320938616835292905220545f198110156105f5578181101561166f57604051637dc7a0d960e11b81526001600160a01b0384166004820152602481018290526044810183905260640161073b565b6105f584848484035f61178d565b6001600160a01b0383166116a657604051634b637e8f60e11b81525f600482015260240161073b565b6001600160a01b0382166116cf5760405163ec442f0560e01b81525f600482015260240161073b565b6115d583838361185f565b600580546001600160a01b038381166001600160a01b0319831681179093556040519116919082907f8be0079c531659141344cd1fd0a4f28419497f9722a3daafe3b4186f6b6457e0905f90a35050565b6001600160a01b0382166117545760405163ec442f0560e01b81525f600482015260240161073b565b61175f5f838361185f565b5050565b60026006540361178657604051633ee5aeb560e01b815260040160405180910390fd5b6002600655565b6001600160a01b0384166117b65760405163e602df0560e01b81525f600482015260240161073b565b6001600160a01b0383166117df57604051634a1406b160e11b81525f600482015260240161073b565b6001600160a01b038085165f90815260016020908152604080832093871683529290522082905580156105f557826001600160a01b0316846001600160a01b03167f8c5be1e5ebec7d5bd14f71427d1e84f3dd0314c0f7b2291e5b200ac8c7c3b9258460405161185191815260200190565b60405180910390a350505050565b6001600160a01b038316611889578060025f82825461187e9190611c05565b909155506118f99050565b6001600160a01b0383165f90815260208190526040902054818110156118db5760405163391434e360e21b81526001600160a01b0385166004820152602481018290526044810183905260640161073b565b6001600160a01b0384165f9081526020819052604090209082900390555b6001600160a01b03821661191557600280548290039055611933565b6001600160a01b0382165f9081526020819052604090208054820190555b816001600160a01b0316836001600160a01b03167fddf252ad1be2c89b69c2b068fc378daa952ba7f163c4a11628f55a4df523b3ef8360405161197891815260200190565b60405180910390a3505050565b5f6020808352835180828501525f5b818110156119b057858101830151858201604001528201611994565b505f604082860101526040601f19601f8301168501019250505092915050565b6001600160a01b0381168114610f75575f80fd5b5f80604083850312156119f5575f80fd5b8235611a00816119d0565b946020939093013593505050565b5f805f60608486031215611a20575f80fd5b8335611a2b816119d0565b92506020840135611a3b816119d0565b929592945050506040919091013590565b5f60208284031215611a5c575f80fd5b5035919050565b5f60208284031215611a73575f80fd5b8135611a7e816119d0565b9392505050565b8015158114610f75575f80fd5b5f60208284031215611aa2575f80fd5b8135611a7e81611a85565b5f8060408385031215611abe575f80fd5b8235611ac9816119d0565b91506020830135611ad9816119d0565b809150509250929050565b600181811c90821680611af857607f821691505b602082108103611b1657634e487b7160e01b5f52602260045260245ffd5b50919050565b5f60208284031215611b2c575f80fd5b5051919050565b5f60208284031215611b43575f80fd5b8151611a7e81611a85565b5f60208284031215611b5e575f80fd5b8151611a7e816119d0565b6020808252601d908201527f416d6f756e74206d7573742062652067726561746572207468616e2030000000604082015260600190565b634e487b7160e01b5f52601260045260245ffd5b5f82611bc257611bc2611ba0565b500690565b634e487b7160e01b5f52601160045260245ffd5b5f82611be957611be9611ba0565b500490565b808202811582820484141761058957610589611bc7565b8082018082111561058957610589611bc756fea2646970667358221220482542886976259e1874f644909d57d3dd685dfdef1cc42f98ea18f5932ad71364736f6c63430008140033608060405234801561000f575f80fd5b5060405161075e38038061075e83398101604081905261002e916100ee565b6001600160a01b0384166100885760405162461bcd60e51b815260206004820152601360248201527f496e76616c69642062656e656669636961727900000000000000000000000000604482015260640160405180910390fd5b5f80546001600160a01b039586166001600160a01b0319918216179091556001805482163317905560028054949095169316929092179092556003919091554260045560055561012e565b80516001600160a01b03811681146100e9575f80fd5b919050565b5f805f8060808587031215610101575f80fd5b61010a856100d3565b9350610118602086016100d3565b6040860151606090960151949790965092505050565b6106238061013b5f395ff3fe608060405234801561000f575f80fd5b50600436106100cb575f3560e01c806378e979251161008857806396132521116100635780639613252114610171578063b6549f751461017a578063fa45a23614610182578063fc0c546a1461018a575f80fd5b806378e979251461014b57806386d1a69f146101545780638da5cb5b1461015e575f80fd5b80630fb5a6b4146100cf5780631a39d8ef146100eb57806338af3eed146100f457806344b1231f1461011e5780635b9400811461012657806363d256ce1461012e575b5f80fd5b6100d860055481565b6040519081526020015b60405180910390f35b6100d860035481565b5f54610106906001600160a01b031681565b6040516001600160a01b0390911681526020016100e2565b6100d861019d565b6100d86101f4565b60075461013b9060ff1681565b60405190151581526020016100e2565b6100d860045481565b61015c61020f565b005b600154610106906001600160a01b031681565b6100d860065481565b61015c6103aa565b6100d8610540565b600254610106906001600160a01b031681565b6007545f9060ff16156101b1575060065490565b5f600454426101c09190610565565b905060055481106101d357505060035490565b600554816003546101e4919061057e565b6101ee9190610595565b91505090565b5f60065461020061019d565b61020a9190610565565b905090565b60075460ff16156102595760405162461bcd60e51b815260206004820152600f60248201526e15995cdd1a5b99c81c995d9bdad959608a1b60448201526064015b60405180910390fd5b5f6102626101f4565b90505f81116102aa5760405162461bcd60e51b81526020600482015260146024820152734e6f20746f6b656e7320746f2072656c6561736560601b6044820152606401610250565b8060065f8282546102bb91906105b4565b90915550506002545f5460405163a9059cbb60e01b81526001600160a01b0391821660048201526024810184905291169063a9059cbb906044016020604051808303815f875af1158015610311573d5f803e3d5ffd5b505050506040513d601f19601f8201168201806040525081019061033591906105c7565b6103735760405162461bcd60e51b815260206004820152600f60248201526e151c985b9cd9995c8819985a5b1959608a1b6044820152606401610250565b6040518181527fa1598fb976f7dd9df63fd18699c54a5744a6a95364166bbd0d77a2f6c8438b1f906020015b60405180910390a150565b6001546001600160a01b031633146103f15760405162461bcd60e51b815260206004820152600a60248201526927b7363c9037bbb732b960b11b6044820152606401610250565b60075460ff16156104365760405162461bcd60e51b815260206004820152600f60248201526e105b1c9958591e481c995d9bdad959608a1b6044820152606401610250565b6007805460ff191660011790556006546003545f9161045491610565565b905080156105105760025460015460405163a9059cbb60e01b81526001600160a01b0391821660048201526024810184905291169063a9059cbb906044016020604051808303815f875af11580156104ae573d5f803e3d5ffd5b505050506040513d601f19601f820116820180604052508101906104d291906105c7565b6105105760405162461bcd60e51b815260206004820152600f60248201526e151c985b9cd9995c8819985a5b1959608a1b6044820152606401610250565b6040518181527fd3dda1e90178815bfcce9e6835272f414b2353c6a301e4ea98e6a7935b74558d9060200161039f565b5f60065460035461020a9190610565565b634e487b7160e01b5f52601160045260245ffd5b8181038181111561057857610578610551565b92915050565b808202811582820484141761057857610578610551565b5f826105af57634e487b7160e01b5f52601260045260245ffd5b500490565b8082018082111561057857610578610551565b5f602082840312156105d7575f80fd5b815180151581146105e6575f80fd5b939250505056fea26469706673582212200d43f4392987f94d016fc37edaeccf78948f20294bb007f3b7fb63c84c25bad064736f6c63430008140033","linkReferences":{}},"methodIdentifiers":{"USDC()":"89a30271","USDT()":"c54e44eb","allowance(address,address)":"dd62ed3e","approve(address,uint256)":"095ea7b3","balanceOf(address)":"70a08231","buyWithUSDC(uint256)":"aeccf735","buyWithUSDT(uint256)":"a7c60160","calculateTokenAmount(uint256)":"a24bcf46","cofounderVesting()":"fdba1d05","decimals()":"313ce567","getCofounderVestingInfo()":"432b1e4a","getContractBalances()":"ffd2a7d3","getSaleStats()":"136ea674","mintTokens(uint256)":"97304ced","name()":"06fdde03","owner()":"8da5cb5b","renounceOwnership()":"715018a6","revokeCofounderVesting()":"0ba06172","saleActive()":"68428a1b","setSaleActive(bool)":"841718a6","setTokenPrice(uint256)":"6a61e5fc","symbol()":"95d89b41","tokenPrice()":"7ff9b596","totalRaisedUSDC()":"f02cbb95","totalRaisedUSDT()":"2675249b","totalSold()":"9106d7ba","totalSupply()":"18160ddd","transfer(address,uint256)":"a9059cbb","transferFrom(address,address,uint256)":"23b872dd","transferOwnership(address)":"f2fde38b","withdrawUSDC()":"d8fc063d","withdrawUSDT()":"362e496b","withdrawUnsoldTokens()":"c8bdbfb6"},"id":1}