{"abi":[{"type":"constructor","inputs":[{"name":"_beneficiary","type":"address","internalType":"address"},{"name":"_token","type":"address","internalType":"address"},{"name":"_totalAmount","type":"uint256","internalType":"uint256"},{"name":"_duration","type":"uint256","internalType":"uint256"}],"stateMutability":"nonpayable"},{"type":"function","name":"beneficiary","inputs":[],"outputs":[{"name":"","type":"address","internalType":"address"}],"stateMutability":"view"},{"type":"function","name":"duration","inputs":[],"outputs":[{"name":"","type":"uint256","internalType":"uint256"}],"stateMutability":"view"},{"type":"function","name":"getRemainingVested","inputs":[],"outputs":[{"name":"","type":"uint256","internalType":"uint256"}],"stateMutability":"view"},{"type":"function","name":"owner","inputs":[],"outputs":[{"name":"","type":"address","internalType":"address"}],"stateMutability":"view"},{"type":"function","name":"releasableAmount","inputs":[],"outputs":[{"name":"","type":"uint256","internalType":"uint256"}],"stateMutability":"view"},{"type":"function","name":"release","inputs":[],"outputs":[],"stateMutability":"nonpayable"},{"type":"function","name":"released","inputs":[],"outputs":[{"name":"","type":"uint256","internalType":"uint256"}],"stateMutability":"view"},{"type":"function","name":"revoke","inputs":[],"outputs":[],"stateMutability":"nonpayable"},{"type":"function","name":"revoked","inputs":[],"outputs":[{"name":"","type":"bool","internalType":"bool"}],"stateMutability":"view"},{"type":"function","name":"startTime","inputs":[],"outputs":[{"name":"","type":"uint256","internalType":"uint256"}],"stateMutability":"view"},{"type":"function","name":"token","inputs":[],"outputs":[{"name":"","type":"address","internalType":"contract IERC20"}],"stateMutability":"view"},{"type":"function","name":"totalAmount","inputs":[],"outputs":[{"name":"","type":"uint256","internalType":"uint256"}],"stateMutability":"view"},{"type":"function","name":"vestedAmount","inputs":[],"outputs":[{"name":"","type":"uint256","internalType":"uint256"}],"stateMutability":"view"},{"type":"event","name":"TokensReleased","inputs":[{"name":"amount","type":"uint256","indexed":false,"internalType":"uint256"}],"anonymous":false},{"type":"event","name":"VestingRevoked","inputs":[{"name":"amountReturned","type":"uint256","indexed":false,"internalType":"uint256"}],"anonymous":false}],"bytecode":{"object":"0x608060405234801561000f575f80fd5b5060405161075e38038061075e83398101604081905261002e916100ee565b6001600160a01b0384166100885760405162461bcd60e51b815260206004820152601360248201527f496e76616c69642062656e656669636961727900000000000000000000000000604482015260640160405180910390fd5b5f80546001600160a01b039586166001600160a01b0319918216179091556001805482163317905560028054949095169316929092179092556003919091554260045560055561012e565b80516001600160a01b03811681146100e9575f80fd5b919050565b5f805f8060808587031215610101575f80fd5b61010a856100d3565b9350610118602086016100d3565b6040860151606090960151949790965092505050565b6106238061013b5f395ff3fe608060405234801561000f575f80fd5b50600436106100cb575f3560e01c806378e979251161008857806396132521116100635780639613252114610171578063b6549f751461017a578063fa45a23614610182578063fc0c546a1461018a575f80fd5b806378e979251461014b57806386d1a69f146101545780638da5cb5b1461015e575f80fd5b80630fb5a6b4146100cf5780631a39d8ef146100eb57806338af3eed146100f457806344b1231f1461011e5780635b9400811461012657806363d256ce1461012e575b5f80fd5b6100d860055481565b6040519081526020015b60405180910390f35b6100d860035481565b5f54610106906001600160a01b031681565b6040516001600160a01b0390911681526020016100e2565b6100d861019d565b6100d86101f4565b60075461013b9060ff1681565b60405190151581526020016100e2565b6100d860045481565b61015c61020f565b005b600154610106906001600160a01b031681565b6100d860065481565b61015c6103aa565b6100d8610540565b600254610106906001600160a01b031681565b6007545f9060ff16156101b1575060065490565b5f600454426101c09190610565565b905060055481106101d357505060035490565b600554816003546101e4919061057e565b6101ee9190610595565b91505090565b5f60065461020061019d565b61020a9190610565565b905090565b60075460ff16156102595760405162461bcd60e51b815260206004820152600f60248201526e15995cdd1a5b99c81c995d9bdad959608a1b60448201526064015b60405180910390fd5b5f6102626101f4565b90505f81116102aa5760405162461bcd60e51b81526020600482015260146024820152734e6f20746f6b656e7320746f2072656c6561736560601b6044820152606401610250565b8060065f8282546102bb91906105b4565b90915550506002545f5460405163a9059cbb60e01b81526001600160a01b0391821660048201526024810184905291169063a9059cbb906044016020604051808303815f875af1158015610311573d5f803e3d5ffd5b505050506040513d601f19601f8201168201806040525081019061033591906105c7565b6103735760405162461bcd60e51b815260206004820152600f60248201526e151c985b9cd9995c8819985a5b1959608a1b6044820152606401610250565b6040518181527fa1598fb976f7dd9df63fd18699c54a5744a6a95364166bbd0d77a2f6c8438b1f906020015b60405180910390a150565b6001546001600160a01b031633146103f15760405162461bcd60e51b815260206004820152600a60248201526927b7363c9037bbb732b960b11b6044820152606401610250565b60075460ff16156104365760405162461bcd60e51b815260206004820152600f60248201526e105b1c9958591e481c995d9bdad959608a1b6044820152606401610250565b6007805460ff191660011790556006546003545f9161045491610565565b905080156105105760025460015460405163a9059cbb60e01b81526001600160a01b0391821660048201526024810184905291169063a9059cbb906044016020604051808303815f875af11580156104ae573d5f803e3d5ffd5b505050506040513d601f19601f820116820180604052508101906104d291906105c7565b6105105760405162461bcd60e51b815260206004820152600f60248201526e151c985b9cd9995c8819985a5b1959608a1b6044820152606401610250565b6040518181527fd3dda1e90178815bfcce9e6835272f414b2353c6a301e4ea98e6a7935b74558d9060200161039f565b5f60065460035461020a9190610565565b634e487b7160e01b5f52601160045260245ffd5b8181038181111561057857610578610551565b92915050565b808202811582820484141761057857610578610551565b5f826105af57634e487b7160e01b5f52601260045260245ffd5b500490565b8082018082111561057857610578610551565b5f602082840312156105d7575f80fd5b815180151581146105e6575f80fd5b939250505056fea26469706673582212200d43f4392987f94d016fc37edaeccf78948f20294bb007f3b7fb63c84c25bad064736f6c63430008140033","linkReferences":{}},"methodIdentifiers":{"beneficiary()":"38af3eed","duration()":"0fb5a6b4","getRemainingVested()":"fa45a236","owner()":"8da5cb5b","releasableAmount()":"5b940081","release()":"86d1a69f","released()":"96132521","revoke()":"b6549f75","revoked()":"63d256ce","startTime()":"78e97925","token()":"fc0c546a","totalAmount()":"1a39d8ef","vestedAmount()":"44b1231f"},"id":1}