{"abi":[{"type":"constructor","inputs":[{"name":"_usdt","type":"address","internalType":"address"},{"name":"_usdc","type":"address","internalType":"address"},{"name":"_cofounder","type":"address","internalType":"address"},{"name":"_relay","type":"address","internalType":"address"}],"stateMutability":"nonpayable"},{"type":"function","name":"USDC","inputs":[],"outputs":[{"name":"","type":"address","internalType":"contract IERC20"}],"stateMutability":"view"},{"type":"function","name":"USDT","inputs":[],"outputs":[{"name":"","type":"address","internalType":"contract IERC20"}],"stateMutability":"view"},{"type":"function","name":"allowance","inputs":[{"name":"owner","type":"address","internalType":"address"},{"name":"spender","type":"address","internalType":"address"}],"outputs":[{"name":"","type":"uint256","internalType":"uint256"}],"stateMutability":"view"},{"type":"function","name":"approve","inputs":[{"name":"spender","type":"address","internalType":"address"},{"name":"value","type":"uint256","internalType":"uint256"}],"outputs":[{"name":"","type":"bool","internalType":"bool"}],"stateMutability":"nonpayable"},{"type":"function","name":"balanceOf","inputs":[{"name":"account","type":"address","internalType":"address"}],"outputs":[{"name":"","type":"uint256","internalType":"uint256"}],"stateMutability":"view"},{"type":"function","name":"buyWithUSDC","inputs":[{"name":"usdcAmount","type":"uint256","internalType":"uint256"}],"outputs":[],"stateMutability":"nonpayable"},{"type":"function","name":"buyWithUSDT","inputs":[{"name":"usdtAmount","type":"uint256","internalType":"uint256"}],"outputs":[],"stateMutability":"nonpayable"},{"type":"function","name":"calculateTokenAmount","inputs":[{"name":"usdAmount","type":"uint256","internalType":"uint256"}],"outputs":[{"name":"","type":"uint256","internalType":"uint256"}],"stateMutability":"view"},{"type":"function","name":"cofounderVesting","inputs":[],"outputs":[{"name":"","type":"address","internalType":"contract TokenVesting"}],"stateMutability":"view"},{"type":"function","name":"decimals","inputs":[],"outputs":[{"name":"","type":"uint8","internalType":"uint8"}],"stateMutability":"view"},{"type":"function","name":"getCofounderVestingInfo","inputs":[],"outputs":[{"name":"vestingContract","type":"address","internalType":"address"},{"name":"beneficiary","type":"address","internalType":"address"},{"name":"totalAmount","type":"uint256","internalType":"uint256"},{"name":"released","type":"uint256","internalType":"uint256"},{"name":"releasable","type":"uint256","internalType":"uint256"},{"name":"isRevoked","type":"bool","internalType":"bool"}],"stateMutability":"view"},{"type":"function","name":"getContractBalances","inputs":[],"outputs":[{"name":"usdtBalance","type":"uint256","internalType":"uint256"},{"name":"usdcBalance","type":"uint256","internalType":"uint256"}],"stateMutability":"view"},{"type":"function","name":"getSaleStats","inputs":[],"outputs":[{"name":"currentPrice","type":"uint256","internalType":"uint256"},{"name":"tokensSold","type":"uint256","internalType":"uint256"},{"name":"raisedUSDT","type":"uint256","internalType":"uint256"},{"name":"raisedUSDC","type":"uint256","internalType":"uint256"},{"name":"remainingTokens","type":"uint256","internalType":"uint256"},{"name":"isActive","type":"bool","internalType":"bool"}],"stateMutability":"view"},{"type":"function","name":"getTokenBalance","inputs":[{"name":"token","type":"address","internalType":"address"}],"outputs":[{"name":"","type":"uint256","internalType":"uint256"}],"stateMutability":"view"},{"type":"function","name":"getTotalRaisedByToken","inputs":[{"name":"token","type":"address","internalType":"address"}],"outputs":[{"name":"","type":"uint256","internalType":"uint256"}],"stateMutability":"view"},{"type":"function","name":"mintTokens","inputs":[{"name":"amount","type":"uint256","internalType":"uint256"}],"outputs":[],"stateMutability":"nonpayable"},{"type":"function","name":"name","inputs":[],"outputs":[{"name":"","type":"string","internalType":"string"}],"stateMutability":"view"},{"type":"function","name":"owner","inputs":[],"outputs":[{"name":"","type":"address","internalType":"address"}],"stateMutability":"view"},{"type":"function","name":"receiveRelayPayment","inputs":[{"name":"buyer","type":"address","internalType":"address"},{"name":"paymentToken","type":"address","internalType":"address"},{"name":"netAmount","type":"uint256","internalType":"uint256"}],"outputs":[],"stateMutability":"nonpayable"},{"type":"function","name":"relay","inputs":[],"outputs":[{"name":"","type":"address","internalType":"address"}],"stateMutability":"view"},{"type":"function","name":"renounceOwnership","inputs":[],"outputs":[],"stateMutability":"nonpayable"},{"type":"function","name":"revokeCofounderVesting","inputs":[],"outputs":[],"stateMutability":"nonpayable"},{"type":"function","name":"saleActive","inputs":[],"outputs":[{"name":"","type":"bool","internalType":"bool"}],"stateMutability":"view"},{"type":"function","name":"setRelay","inputs":[{"name":"newRelay","type":"address","internalType":"address"}],"outputs":[],"stateMutability":"nonpayable"},{"type":"function","name":"setSaleActive","inputs":[{"name":"_active","type":"bool","internalType":"bool"}],"outputs":[],"stateMutability":"nonpayable"},{"type":"function","name":"setTokenPrice","inputs":[{"name":"newPrice","type":"uint256","internalType":"uint256"}],"outputs":[],"stateMutability":"nonpayable"},{"type":"function","name":"symbol","inputs":[],"outputs":[{"name":"","type":"string","internalType":"string"}],"stateMutability":"view"},{"type":"function","name":"tokenPrice","inputs":[],"outputs":[{"name":"","type":"uint256","internalType":"uint256"}],"stateMutability":"view"},{"type":"function","name":"totalRaisedByToken","inputs":[{"name":"","type":"address","internalType":"address"}],"outputs":[{"name":"","type":"uint256","internalType":"uint256"}],"stateMutability":"view"},{"type":"function","name":"totalRaisedUSDC","inputs":[],"outputs":[{"name":"","type":"uint256","internalType":"uint256"}],"stateMutability":"view"},{"type":"function","name":"totalRaisedUSDT","inputs":[],"outputs":[{"name":"","type":"uint256","internalType":"uint256"}],"stateMutability":"view"},{"type":"function","name":"totalSold","inputs":[],"outputs":[{"name":"","type":"uint256","internalType":"uint256"}],"stateMutability":"view"},{"type":"function","name":"totalSupply","inputs":[],"outputs":[{"name":"","type":"uint256","internalType":"uint256"}],"stateMutability":"view"},{"type":"function","name":"transfer","inputs":[{"name":"to","type":"address","internalType":"address"},{"name":"value","type":"uint256","internalType":"uint256"}],"outputs":[{"name":"","type":"bool","internalType":"bool"}],"stateMutability":"nonpayable"},{"type":"function","name":"transferFrom","inputs":[{"name":"from","type":"address","internalType":"address"},{"name":"to","type":"address","internalType":"address"},{"name":"value","type":"uint256","internalType":"uint256"}],"outputs":[{"name":"","type":"bool","internalType":"bool"}],"stateMutability":"nonpayable"},{"type":"function","name":"transferOwnership","inputs":[{"name":"newOwner","type":"address","internalType":"address"}],"outputs":[],"stateMutability":"nonpayable"},{"type":"function","name":"withdrawToken","inputs":[{"name":"token","type":"address","internalType":"address"}],"outputs":[],"stateMutability":"nonpayable"},{"type":"function","name":"withdrawUSDC","inputs":[],"outputs":[],"stateMutability":"nonpayable"},{"type":"function","name":"withdrawUSDT","inputs":[],"outputs":[],"stateMutability":"nonpayable"},{"type":"function","name":"withdrawUnsoldTokens","inputs":[],"outputs":[],"stateMutability":"nonpayable"},{"type":"event","name":"Approval","inputs":[{"name":"owner","type":"address","indexed":true,"internalType":"address"},{"name":"spender","type":"address","indexed":true,"internalType":"address"},{"name":"value","type":"uint256","indexed":false,"internalType":"uint256"}],"anonymous":false},{"type":"event","name":"CofounderVestingCreated","inputs":[{"name":"vestingContract","type":"address","indexed":false,"internalType":"address"},{"name":"amount","type":"uint256","indexed":false,"internalType":"uint256"}],"anonymous":false},{"type":"event","name":"FundsWithdrawn","inputs":[{"name":"token","type":"address","indexed":false,"internalType":"address"},{"name":"amount","type":"uint256","indexed":false,"internalType":"uint256"}],"anonymous":false},{"type":"event","name":"OwnershipTransferred","inputs":[{"name":"previousOwner","type":"address","indexed":true,"internalType":"address"},{"name":"newOwner","type":"address","indexed":true,"internalType":"address"}],"anonymous":false},{"type":"event","name":"PriceUpdated","inputs":[{"name":"oldPrice","type":"uint256","indexed":false,"internalType":"uint256"},{"name":"newPrice","type":"uint256","indexed":false,"internalType":"uint256"}],"anonymous":false},{"type":"event","name":"RelayPaymentReceived","inputs":[{"name":"buyer","type":"address","indexed":true,"internalType":"address"},{"name":"paymentToken","type":"address","indexed":true,"internalType":"address"},{"name":"netAmount","type":"uint256","indexed":false,"internalType":"uint256"},{"name":"demiAmount","type":"uint256","indexed":false,"internalType":"uint256"}],"anonymous":false},{"type":"event","name":"RelayUpdated","inputs":[{"name":"oldRelay","type":"address","indexed":true,"internalType":"address"},{"name":"newRelay","type":"address","indexed":true,"internalType":"address"}],"anonymous":false},{"type":"event","name":"SaleStatusChanged","inputs":[{"name":"active","type":"bool","indexed":false,"internalType":"bool"}],"anonymous":false},{"type":"event","name":"TokensMinted","inputs":[{"name":"amountToOwner","type":"uint256","indexed":false,"internalType":"uint256"},{"name":"amountToContract","type":"uint256","indexed":false,"internalType":"uint256"}],"anonymous":false},{"type":"event","name":"TokensPurchased","inputs":[{"name":"buyer","type":"address","indexed":true,"internalType":"address"},{"name":"demiAmount","type":"uint256","indexed":false,"internalType":"uint256"},{"name":"paymentAmount","type":"uint256","indexed":false,"internalType":"uint256"},{"name":"paymentToken","type":"address","indexed":false,"internalType":"address"}],"anonymous":false},{"type":"event","name":"Transfer","inputs":[{"name":"from","type":"address","indexed":true,"internalType":"address"},{"name":"to","type":"address","indexed":true,"internalType":"address"},{"name":"value","type":"uint256","indexed":false,"internalType":"uint256"}],"anonymous":false},{"type":"error","name":"ERC20InsufficientAllowance","inputs":[{"name":"spender","type":"address","internalType":"address"},{"name":"allowance","type":"uint256","internalType":"uint256"},{"name":"needed","type":"uint256","internalType":"uint256"}]},{"type":"error","name":"ERC20InsufficientBalance","inputs":[{"name":"sender","type":"address","internalType":"address"},{"name":"balance","type":"uint256","internalType":"uint256"},{"name":"needed","type":"uint256","internalType":"uint256"}]},{"type":"error","name":"ERC20InvalidApprover","inputs":[{"name":"approver","type":"address","internalType":"address"}]},{"type":"error","name":"ERC20InvalidReceiver","inputs":[{"name":"receiver","type":"address","internalType":"address"}]},{"type":"error","name":"ERC20InvalidSender","inputs":[{"name":"sender","type":"address","internalType":"address"}]},{"type":"error","name":"ERC20InvalidSpender","inputs":[{"name":"spender","type":"address","internalType":"address"}]},{"type":"error","name":"OwnableInvalidOwner","inputs":[{"name":"owner","type":"address","internalType":"address"}]},{"type":"error","name":"OwnableUnauthorizedAccount","inputs":[{"name":"account","type":"address","internalType":"address"}]},{"type":"error","name":"ReentrancyGuardReentrantCall","inputs":[]}],"bytecode":{"object":"0x60c060405234801562000010575f80fd5b50604051620030b6380380620030b683398101604081905262000033916200045e565b336040518060400160405280600481526020016344656d6960e01b8152506040518060400160405280600481526020016344454d4960e01b81525081600390816200007f919062000558565b5060046200008e828262000558565b5050506001600160a01b038116620000c057604051631e4fbdf760e01b81525f60048201526024015b60405180910390fd5b620000cb8162000278565b5060016006556001600160a01b0382166200011d5760405162461bcd60e51b815260206004820152601160248201527024b73b30b634b21031b7b337bab73232b960791b6044820152606401620000b7565b6001600160a01b0384811660805283811660a052600d80546001600160a01b0319168383161790556005546200016191166b0554d9173ae4d397b2000000620002c9565b5f6a887c1bec4a1528c500000090508230826303c26700604051620001869062000434565b6001600160a01b03948516815293909216602084015260408301526060820152608001604051809103905ff080158015620001c3573d5f803e3d5ffd5b50600c80546001600160a01b0319166001600160a01b0392909216919091179055620001fc306b04cc5cfb4e9abe6eed000000620002c9565b600c5462000214906001600160a01b031682620002c9565b6127106007556008805460ff19166001179055600c54604080516001600160a01b039092168252602082018390527f9999e472ab9916885f6620dc27aab8ad0de90cf2f4870e37a937ce566c86dee9910160405180910390a1505050505062000646565b600580546001600160a01b038381166001600160a01b0319831681179093556040519116919082907f8be0079c531659141344cd1fd0a4f28419497f9722a3daafe3b4186f6b6457e0905f90a35050565b6001600160a01b038216620002f45760405163ec442f0560e01b81525f6004820152602401620000b7565b620003015f838362000305565b5050565b6001600160a01b03831662000333578060025f82825462000327919062000620565b90915550620003a59050565b6001600160a01b0383165f9081526020819052604090205481811015620003875760405163391434e360e21b81526001600160a01b03851660048201526024810182905260448101839052606401620000b7565b6001600160a01b0384165f9081526020819052604090209082900390555b6001600160a01b038216620003c357600280548290039055620003e1565b6001600160a01b0382165f9081526020819052604090208054820190555b816001600160a01b0316836001600160a01b03167fddf252ad1be2c89b69c2b068fc378daa952ba7f163c4a11628f55a4df523b3ef836040516200042791815260200190565b60405180910390a3505050565b61075e806200295883390190565b80516001600160a01b038116811462000459575f80fd5b919050565b5f805f806080858703121562000472575f80fd5b6200047d8562000442565b93506200048d6020860162000442565b92506200049d6040860162000442565b9150620004ad6060860162000442565b905092959194509250565b634e487b7160e01b5f52604160045260245ffd5b600181811c90821680620004e157607f821691505b6020821081036200050057634e487b7160e01b5f52602260045260245ffd5b50919050565b601f82111562000553575f81815260208120601f850160051c810160208610156200052e5750805b601f850160051c820191505b818110156200054f578281556001016200053a565b5050505b505050565b81516001600160401b03811115620005745762000574620004b8565b6200058c81620005858454620004cc565b8462000506565b602080601f831160018114620005c2575f8415620005aa5750858301515b5f19600386901b1c1916600185901b1785556200054f565b5f85815260208120601f198616915b82811015620005f257888601518255948401946001909101908401620005d1565b50858210156200061057878501515f19600388901b60f8161c191681555b5050505050600190811b01905550565b808201808211156200064057634e487b7160e01b5f52601160045260245ffd5b92915050565b60805160a05161228e620006ca5f395f818161043d01528181610ba90152818161163101528181611737015281816118c00152818161197a01528181611a780152611ba201525f81816105100152818161077a015281816108390152818161093701528181610b62015281816113b3015281816114b90152611b24015261228e5ff3fe608060405234801561000f575f80fd5b506004361061023f575f3560e01c80638947606911610135578063b59589d1116100b4578063dd62ed3e11610079578063dd62ed3e14610555578063f02cbb951461058d578063f2fde38b14610596578063fdba1d05146105a9578063ffd2a7d3146105bc575f80fd5b8063b59589d1146104f8578063c54e44eb1461050b578063c805f68b14610532578063c8bdbfb614610545578063d8fc063d1461054d575f80fd5b806397304ced116100fa57806397304ced14610499578063a24bcf46146104ac578063a7c60160146104bf578063a9059cbb146104d2578063aeccf735146104e5575f80fd5b8063894760691461042557806389a30271146104385780638da5cb5b146104775780639106d7ba1461048857806395d89b4114610491575f80fd5b80633aecd0e3116101c15780636a61e5fc116101865780636a61e5fc146103c657806370a08231146103d9578063715018a6146104015780637ff9b59614610409578063841718a614610412575f80fd5b80633aecd0e3146103325780633c976b6114610345578063432b1e4a1461035857806351cb2e1e1461039a57806368428a1b146103b9575f80fd5b80631b29611f116102075780631b29611f146102d757806323b872dd146102ff5780632675249b14610312578063313ce5671461031b578063362e496b1461032a575f80fd5b806306fdde0314610243578063095ea7b3146102615780630ba0617214610284578063136ea6741461028e57806318160ddd146102c5575b5f80fd5b61024b6105d9565b6040516102589190611fd3565b60405180910390f35b61027461026f366004612032565b610669565b6040519015158152602001610258565b61028c610682565b005b6102966106ee565b6040805196875260208701959095529385019290925260608401526080830152151560a082015260c001610258565b6002545b604051908152602001610258565b6102c96102e536600461205c565b6001600160a01b03165f908152600e602052604090205490565b61027461030d36600461207e565b610738565b6102c9600a5481565b60405160128152602001610258565b61028c61075b565b6102c961034036600461205c565b61098f565b61028c61035336600461207e565b6109f7565b610360610caa565b604080516001600160a01b0397881681529690951660208701529385019290925260608401526080830152151560a082015260c001610258565b6102c96103a836600461205c565b600e6020525f908152604090205481565b6008546102749060ff1681565b61028c6103d43660046120bc565b610f06565b6102c96103e736600461205c565b6001600160a01b03165f9081526020819052604090205490565b61028c610fa3565b6102c960075481565b61028c6104203660046120e0565b610fb6565b61028c61043336600461205c565b610fff565b61045f7f000000000000000000000000000000000000000000000000000000000000000081565b6040516001600160a01b039091168152602001610258565b6005546001600160a01b031661045f565b6102c960095481565b61024b6111b8565b61028c6104a73660046120bc565b6111c7565b6102c96104ba3660046120bc565b61128c565b61028c6104cd3660046120bc565b6112ad565b6102746104e0366004612032565b61151e565b61028c6104f33660046120bc565b61152b565b600d5461045f906001600160a01b031681565b61045f7f000000000000000000000000000000000000000000000000000000000000000081565b61028c61054036600461205c565b61178a565b61028c611829565b61028c6118a1565b6102c96105633660046120fb565b6001600160a01b039182165f90815260016020908152604080832093909416825291909152205490565b6102c9600b5481565b61028c6105a436600461205c565b611ac9565b600c5461045f906001600160a01b031681565b6105c4611b03565b60408051928352602083019190915201610258565b6060600380546105e890612132565b80601f016020809104026020016040519081016040528092919081815260200182805461061490612132565b801561065f5780601f106106365761010080835404028352916020019161065f565b820191905f5260205f20905b81548152906001019060200180831161064257829003601f168201915b5050505050905090565b5f33610676818585611c1b565b60019150505b92915050565b61068a611c28565b600c5f9054906101000a90046001600160a01b03166001600160a01b031663b6549f756040518163ffffffff1660e01b81526004015f604051808303815f87803b1580156106d6575f80fd5b505af11580156106e8573d5f803e3d5ffd5b50505050565b5f805f805f80600754600954600a54600b5461071e306001600160a01b03165f9081526020819052604090205490565b600854949b939a509198509650945060ff90911692509050565b5f33610745858285611c55565b610750858585611ccb565b506001949350505050565b610763611c28565b6040516370a0823160e01b81523060048201525f907f00000000000000000000000000000000000000000000000000000000000000006001600160a01b0316906370a0823190602401602060405180830381865afa1580156107c7573d5f803e3d5ffd5b505050506040513d601f19601f820116820180604052508101906107eb919061216a565b90505f81116108375760405162461bcd60e51b81526020600482015260136024820152724e6f205553445420746f20776974686472617760681b60448201526064015b60405180910390fd5b7f00000000000000000000000000000000000000000000000000000000000000006001600160a01b031663a9059cbb6108786005546001600160a01b031690565b6040516001600160e01b031960e084901b1681526001600160a01b039091166004820152602481018490526044016020604051808303815f875af11580156108c2573d5f803e3d5ffd5b505050506040513d601f19601f820116820180604052508101906108e69190612181565b6109295760405162461bcd60e51b81526020600482015260146024820152731554d115081d1c985b9cd9995c8819985a5b195960621b604482015260640161082e565b604080516001600160a01b037f0000000000000000000000000000000000000000000000000000000000000000168152602081018390527feaff4b37086828766ad3268786972c0cd24259d4c87a80f9d3963a3c3d999b0d91015b60405180910390a150565b6040516370a0823160e01b81523060048201525f906001600160a01b038316906370a0823190602401602060405180830381865afa1580156109d3573d5f803e3d5ffd5b505050506040513d601f19601f8201168201806040525081019061067c919061216a565b6109ff611d28565b600d546001600160a01b03163314610a465760405162461bcd60e51b815260206004820152600a6024820152694f6e6c792072656c617960b01b604482015260640161082e565b60085460ff16610a685760405162461bcd60e51b815260040161082e9061219c565b5f8111610aac5760405162461bcd60e51b81526020600482015260126024820152710416d6f756e74206d757374206265203e20360741b604482015260640161082e565b5f610ab68261128c565b305f90815260208190526040902054909150811115610b0b5760405162461bcd60e51b8152602060048201526011602482015270496e73756666696369656e742044454d4960781b604482015260640161082e565b610b16308583611ccb565b8060095f828254610b2791906121d9565b90915550506001600160a01b0383165f908152600e602052604081208054849290610b539084906121d9565b90915550506001600160a01b037f0000000000000000000000000000000000000000000000000000000000000000811690841603610ba75781600a5f828254610b9c91906121d9565b90915550610bf79050565b7f00000000000000000000000000000000000000000000000000000000000000006001600160a01b0316836001600160a01b031603610bf75781600b5f828254610bf191906121d9565b90915550505b826001600160a01b0316846001600160a01b03167f8a427666f35a34a77dd2c6813599a1f7a1217a520eb2870584397a4c88158c618484604051610c45929190918252602082015260400190565b60405180910390a360408051828152602081018490526001600160a01b03858116828401529151918616917ffee6df20e0b882b05ab84bcc40a45ff3e3ae8062e60ed6ea21c021d96f822b2f9181900360600190a250610ca56001600655565b505050565b600c54604080516338af3eed60e01b815290515f92839283928392839283926001600160a01b039092169182916338af3eed9160048083019260209291908290030181865afa158015610cff573d5f803e3d5ffd5b505050506040513d601f19601f82011682018060405250810190610d2391906121ec565b600c5f9054906101000a90046001600160a01b03166001600160a01b0316631a39d8ef6040518163ffffffff1660e01b8152600401602060405180830381865afa158015610d73573d5f803e3d5ffd5b505050506040513d601f19601f82011682018060405250810190610d97919061216a565b600c5f9054906101000a90046001600160a01b03166001600160a01b031663961325216040518163ffffffff1660e01b8152600401602060405180830381865afa158015610de7573d5f803e3d5ffd5b505050506040513d601f19601f82011682018060405250810190610e0b919061216a565b600c5f9054906101000a90046001600160a01b03166001600160a01b0316635b9400816040518163ffffffff1660e01b8152600401602060405180830381865afa158015610e5b573d5f803e3d5ffd5b505050506040513d601f19601f82011682018060405250810190610e7f919061216a565b600c5f9054906101000a90046001600160a01b03166001600160a01b03166363d256ce6040518163ffffffff1660e01b8152600401602060405180830381865afa158015610ecf573d5f803e3d5ffd5b505050506040513d601f19601f82011682018060405250810190610ef39190612181565b949b939a50919850965094509092509050565b610f0e611c28565b5f8111610f5d5760405162461bcd60e51b815260206004820152601c60248201527f5072696365206d7573742062652067726561746572207468616e203000000000604482015260640161082e565b600780549082905560408051828152602081018490527f945c1c4e99aa89f648fbfe3df471b916f719e16d960fcec0737d4d56bd69683891015b60405180910390a15050565b610fab611c28565b610fb45f611d52565b565b610fbe611c28565b6008805460ff19168215159081179091556040519081527ff3637cdf61687bb87179d2da614bc1f4aa93c3cbf40282ccd0a15ecad9184cc190602001610984565b611007611c28565b6040516370a0823160e01b81523060048201525f906001600160a01b038316906370a0823190602401602060405180830381865afa15801561104b573d5f803e3d5ffd5b505050506040513d601f19601f8201168201806040525081019061106f919061216a565b90505f81116110ac5760405162461bcd60e51b81526020600482015260096024820152684e6f20746f6b656e7360b81b604482015260640161082e565b816001600160a01b031663a9059cbb6110cd6005546001600160a01b031690565b6040516001600160e01b031960e084901b1681526001600160a01b039091166004820152602481018490526044016020604051808303815f875af1158015611117573d5f803e3d5ffd5b505050506040513d601f19601f8201168201806040525081019061113b9190612181565b6111795760405162461bcd60e51b815260206004820152600f60248201526e151c985b9cd9995c8819985a5b1959608a1b604482015260640161082e565b604080516001600160a01b0384168152602081018390527feaff4b37086828766ad3268786972c0cd24259d4c87a80f9d3963a3c3d999b0d9101610f97565b6060600480546105e890612132565b6111cf611c28565b5f811180156111e657506111e460028261221b565b155b6112235760405162461bcd60e51b815260206004820152600e60248201526d125b9d985b1a5908185b5bdd5b9d60921b604482015260640161082e565b5f61122f60028361222e565b905061124c6112466005546001600160a01b031690565b82611da3565b6112563082611da3565b60408051828152602081018390527fc61c8e2899bd86923bda7268d6d1b42d8e644ff3dedc13d41d5b798e4aa352379101610f97565b6007545f906112a383670de0b6b3a7640000612241565b61067c919061222e565b6112b5611d28565b60085460ff166112d75760405162461bcd60e51b815260040161082e9061219c565b5f81116113265760405162461bcd60e51b815260206004820152601d60248201527f416d6f756e74206d7573742062652067726561746572207468616e2030000000604482015260640161082e565b5f6113308261128c565b305f908152602081905260409020549091508111156113915760405162461bcd60e51b815260206004820152601d60248201527f496e73756666696369656e742044454d4920696e20636f6e7472616374000000604482015260640161082e565b6040516323b872dd60e01b8152336004820152306024820152604481018390527f00000000000000000000000000000000000000000000000000000000000000006001600160a01b0316906323b872dd906064016020604051808303815f875af1158015611401573d5f803e3d5ffd5b505050506040513d601f19601f820116820180604052508101906114259190612181565b6114685760405162461bcd60e51b81526020600482015260146024820152731554d115081d1c985b9cd9995c8819985a5b195960621b604482015260640161082e565b611473303383611ccb565b8060095f82825461148491906121d9565b9250508190555081600a5f82825461149c91906121d9565b909155505060408051828152602081018490526001600160a01b037f0000000000000000000000000000000000000000000000000000000000000000169181019190915233907ffee6df20e0b882b05ab84bcc40a45ff3e3ae8062e60ed6ea21c021d96f822b2f906060015b60405180910390a25061151b6001600655565b50565b5f33610676818585611ccb565b611533611d28565b60085460ff166115555760405162461bcd60e51b815260040161082e9061219c565b5f81116115a45760405162461bcd60e51b815260206004820152601d60248201527f416d6f756e74206d7573742062652067726561746572207468616e2030000000604482015260640161082e565b5f6115ae8261128c565b305f9081526020819052604090205490915081111561160f5760405162461bcd60e51b815260206004820152601d60248201527f496e73756666696369656e742044454d4920696e20636f6e7472616374000000604482015260640161082e565b6040516323b872dd60e01b8152336004820152306024820152604481018390527f00000000000000000000000000000000000000000000000000000000000000006001600160a01b0316906323b872dd906064016020604051808303815f875af115801561167f573d5f803e3d5ffd5b505050506040513d601f19601f820116820180604052508101906116a39190612181565b6116e65760405162461bcd60e51b81526020600482015260146024820152731554d110c81d1c985b9cd9995c8819985a5b195960621b604482015260640161082e565b6116f1303383611ccb565b8060095f82825461170291906121d9565b9250508190555081600b5f82825461171a91906121d9565b909155505060408051828152602081018490526001600160a01b037f0000000000000000000000000000000000000000000000000000000000000000169181019190915233907ffee6df20e0b882b05ab84bcc40a45ff3e3ae8062e60ed6ea21c021d96f822b2f90606001611508565b611792611c28565b6001600160a01b0381166117d85760405162461bcd60e51b815260206004820152600d60248201526c496e76616c69642072656c617960981b604482015260640161082e565b600d80546001600160a01b038381166001600160a01b0319831681179093556040519116919082907fe2a0aba5b8a27995afc30d66ac2506161f7f452f984ee6c7d75ef1e1ba6959fc905f90a35050565b611831611c28565b305f90815260208190526040902054806118855760405162461bcd60e51b81526020600482015260156024820152744e6f20746f6b656e7320746f20776974686472617760581b604482015260640161082e565b61151b3061189b6005546001600160a01b031690565b83611ccb565b6118a9611c28565b6040516370a0823160e01b81523060048201525f907f00000000000000000000000000000000000000000000000000000000000000006001600160a01b0316906370a0823190602401602060405180830381865afa15801561190d573d5f803e3d5ffd5b505050506040513d601f19601f82011682018060405250810190611931919061216a565b90505f81116119785760405162461bcd60e51b81526020600482015260136024820152724e6f205553444320746f20776974686472617760681b604482015260640161082e565b7f00000000000000000000000000000000000000000000000000000000000000006001600160a01b031663a9059cbb6119b96005546001600160a01b031690565b6040516001600160e01b031960e084901b1681526001600160a01b039091166004820152602481018490526044016020604051808303815f875af1158015611a03573d5f803e3d5ffd5b505050506040513d601f19601f82011682018060405250810190611a279190612181565b611a6a5760405162461bcd60e51b81526020600482015260146024820152731554d110c81d1c985b9cd9995c8819985a5b195960621b604482015260640161082e565b604080516001600160a01b037f0000000000000000000000000000000000000000000000000000000000000000168152602081018390527feaff4b37086828766ad3268786972c0cd24259d4c87a80f9d3963a3c3d999b0d9101610984565b611ad1611c28565b6001600160a01b038116611afa57604051631e4fbdf760e01b81525f600482015260240161082e565b61151b81611d52565b6040516370a0823160e01b81523060048201525f9081906001600160a01b037f000000000000000000000000000000000000000000000000000000000000000016906370a0823190602401602060405180830381865afa158015611b69573d5f803e3d5ffd5b505050506040513d601f19601f82011682018060405250810190611b8d919061216a565b6040516370a0823160e01b81523060048201527f00000000000000000000000000000000000000000000000000000000000000006001600160a01b0316906370a0823190602401602060405180830381865afa158015611bef573d5f803e3d5ffd5b505050506040513d601f19601f82011682018060405250810190611c13919061216a565b915091509091565b610ca58383836001611ddb565b6005546001600160a01b03163314610fb45760405163118cdaa760e01b815233600482015260240161082e565b6001600160a01b038381165f908152600160209081526040808320938616835292905220545f198110156106e85781811015611cbd57604051637dc7a0d960e11b81526001600160a01b0384166004820152602481018290526044810183905260640161082e565b6106e884848484035f611ddb565b6001600160a01b038316611cf457604051634b637e8f60e11b81525f600482015260240161082e565b6001600160a01b038216611d1d5760405163ec442f0560e01b81525f600482015260240161082e565b610ca5838383611ead565b600260065403611d4b57604051633ee5aeb560e01b815260040160405180910390fd5b6002600655565b600580546001600160a01b038381166001600160a01b0319831681179093556040519116919082907f8be0079c531659141344cd1fd0a4f28419497f9722a3daafe3b4186f6b6457e0905f90a35050565b6001600160a01b038216611dcc5760405163ec442f0560e01b81525f600482015260240161082e565b611dd75f8383611ead565b5050565b6001600160a01b038416611e045760405163e602df0560e01b81525f600482015260240161082e565b6001600160a01b038316611e2d57604051634a1406b160e11b81525f600482015260240161082e565b6001600160a01b038085165f90815260016020908152604080832093871683529290522082905580156106e857826001600160a01b0316846001600160a01b03167f8c5be1e5ebec7d5bd14f71427d1e84f3dd0314c0f7b2291e5b200ac8c7c3b92584604051611e9f91815260200190565b60405180910390a350505050565b6001600160a01b038316611ed7578060025f828254611ecc91906121d9565b90915550611f479050565b6001600160a01b0383165f9081526020819052604090205481811015611f295760405163391434e360e21b81526001600160a01b0385166004820152602481018290526044810183905260640161082e565b6001600160a01b0384165f9081526020819052604090209082900390555b6001600160a01b038216611f6357600280548290039055611f81565b6001600160a01b0382165f9081526020819052604090208054820190555b816001600160a01b0316836001600160a01b03167fddf252ad1be2c89b69c2b068fc378daa952ba7f163c4a11628f55a4df523b3ef83604051611fc691815260200190565b60405180910390a3505050565b5f6020808352835180828501525f5b81811015611ffe57858101830151858201604001528201611fe2565b505f604082860101526040601f19601f8301168501019250505092915050565b6001600160a01b038116811461151b575f80fd5b5f8060408385031215612043575f80fd5b823561204e8161201e565b946020939093013593505050565b5f6020828403121561206c575f80fd5b81356120778161201e565b9392505050565b5f805f60608486031215612090575f80fd5b833561209b8161201e565b925060208401356120ab8161201e565b929592945050506040919091013590565b5f602082840312156120cc575f80fd5b5035919050565b801515811461151b575f80fd5b5f602082840312156120f0575f80fd5b8135612077816120d3565b5f806040838503121561210c575f80fd5b82356121178161201e565b915060208301356121278161201e565b809150509250929050565b600181811c9082168061214657607f821691505b60208210810361216457634e487b7160e01b5f52602260045260245ffd5b50919050565b5f6020828403121561217a575f80fd5b5051919050565b5f60208284031215612191575f80fd5b8151612077816120d3565b6020808252600f908201526e53616c65206e6f742061637469766560881b604082015260600190565b634e487b7160e01b5f52601160045260245ffd5b8082018082111561067c5761067c6121c5565b5f602082840312156121fc575f80fd5b81516120778161201e565b634e487b7160e01b5f52601260045260245ffd5b5f8261222957612229612207565b500690565b5f8261223c5761223c612207565b500490565b808202811582820484141761067c5761067c6121c556fea264697066735822122097fb1a66e7a37dc4f9b19aae5687615763ae4372415a0b37452b13abc69c924864736f6c63430008140033608060405234801561000f575f80fd5b5060405161075e38038061075e83398101604081905261002e916100ee565b6001600160a01b0384166100885760405162461bcd60e51b815260206004820152601360248201527f496e76616c69642062656e656669636961727900000000000000000000000000604482015260640160405180910390fd5b5f80546001600160a01b039586166001600160a01b0319918216179091556001805482163317905560028054949095169316929092179092556003919091554260045560055561012e565b80516001600160a01b03811681146100e9575f80fd5b919050565b5f805f8060808587031215610101575f80fd5b61010a856100d3565b9350610118602086016100d3565b6040860151606090960151949790965092505050565b6106238061013b5f395ff3fe608060405234801561000f575f80fd5b50600436106100cb575f3560e01c806378e979251161008857806396132521116100635780639613252114610171578063b6549f751461017a578063fa45a23614610182578063fc0c546a1461018a575f80fd5b806378e979251461014b57806386d1a69f146101545780638da5cb5b1461015e575f80fd5b80630fb5a6b4146100cf5780631a39d8ef146100eb57806338af3eed146100f457806344b1231f1461011e5780635b9400811461012657806363d256ce1461012e575b5f80fd5b6100d860055481565b6040519081526020015b60405180910390f35b6100d860035481565b5f54610106906001600160a01b031681565b6040516001600160a01b0390911681526020016100e2565b6100d861019d565b6100d86101f4565b60075461013b9060ff1681565b60405190151581526020016100e2565b6100d860045481565b61015c61020f565b005b600154610106906001600160a01b031681565b6100d860065481565b61015c6103aa565b6100d8610540565b600254610106906001600160a01b031681565b6007545f9060ff16156101b1575060065490565b5f600454426101c09190610565565b905060055481106101d357505060035490565b600554816003546101e4919061057e565b6101ee9190610595565b91505090565b5f60065461020061019d565b61020a9190610565565b905090565b60075460ff16156102595760405162461bcd60e51b815260206004820152600f60248201526e15995cdd1a5b99c81c995d9bdad959608a1b60448201526064015b60405180910390fd5b5f6102626101f4565b90505f81116102aa5760405162461bcd60e51b81526020600482015260146024820152734e6f20746f6b656e7320746f2072656c6561736560601b6044820152606401610250565b8060065f8282546102bb91906105b4565b90915550506002545f5460405163a9059cbb60e01b81526001600160a01b0391821660048201526024810184905291169063a9059cbb906044016020604051808303815f875af1158015610311573d5f803e3d5ffd5b505050506040513d601f19601f8201168201806040525081019061033591906105c7565b6103735760405162461bcd60e51b815260206004820152600f60248201526e151c985b9cd9995c8819985a5b1959608a1b6044820152606401610250565b6040518181527fa1598fb976f7dd9df63fd18699c54a5744a6a95364166bbd0d77a2f6c8438b1f906020015b60405180910390a150565b6001546001600160a01b031633146103f15760405162461bcd60e51b815260206004820152600a60248201526927b7363c9037bbb732b960b11b6044820152606401610250565b60075460ff16156104365760405162461bcd60e51b815260206004820152600f60248201526e105b1c9958591e481c995d9bdad959608a1b6044820152606401610250565b6007805460ff191660011790556006546003545f9161045491610565565b905080156105105760025460015460405163a9059cbb60e01b81526001600160a01b0391821660048201526024810184905291169063a9059cbb906044016020604051808303815f875af11580156104ae573d5f803e3d5ffd5b505050506040513d601f19601f820116820180604052508101906104d291906105c7565b6105105760405162461bcd60e51b815260206004820152600f60248201526e151c985b9cd9995c8819985a5b1959608a1b6044820152606401610250565b6040518181527fd3dda1e90178815bfcce9e6835272f414b2353c6a301e4ea98e6a7935b74558d9060200161039f565b5f60065460035461020a9190610565565b634e487b7160e01b5f52601160045260245ffd5b8181038181111561057857610578610551565b92915050565b808202811582820484141761057857610578610551565b5f826105af57634e487b7160e01b5f52601260045260245ffd5b500490565b8082018082111561057857610578610551565b5f602082840312156105d7575f80fd5b815180151581146105e6575f80fd5b939250505056fea26469706673582212209a0912022776c422b3a7060c44e424f3f43dd48d93c1173e7a0e644bf787e2ac64736f6c63430008140033","linkReferences":{}},"methodIdentifiers":{"USDC()":"89a30271","USDT()":"c54e44eb","allowance(address,address)":"dd62ed3e","approve(address,uint256)":"095ea7b3","balanceOf(address)":"70a08231","buyWithUSDC(uint256)":"aeccf735","buyWithUSDT(uint256)":"a7c60160","calculateTokenAmount(uint256)":"a24bcf46","cofounderVesting()":"fdba1d05","decimals()":"313ce567","getCofounderVestingInfo()":"432b1e4a","getContractBalances()":"ffd2a7d3","getSaleStats()":"136ea674","getTokenBalance(address)":"3aecd0e3","getTotalRaisedByToken(address)":"1b29611f","mintTokens(uint256)":"97304ced","name()":"06fdde03","owner()":"8da5cb5b","receiveRelayPayment(address,address,uint256)":"3c976b61","relay()":"b59589d1","renounceOwnership()":"715018a6","revokeCofounderVesting()":"0ba06172","saleActive()":"68428a1b","setRelay(address)":"c805f68b","setSaleActive(bool)":"841718a6","setTokenPrice(uint256)":"6a61e5fc","symbol()":"95d89b41","tokenPrice()":"7ff9b596","totalRaisedByToken(address)":"51cb2e1e","totalRaisedUSDC()":"f02cbb95","totalRaisedUSDT()":"2675249b","totalSold()":"9106d7ba","totalSupply()":"18160ddd","transfer(address,uint256)":"a9059cbb","transferFrom(address,address,uint256)":"23b872dd","transferOwnership(address)":"f2fde38b","withdrawToken(address)":"89476069","withdrawUSDC()":"d8fc063d","withdrawUSDT()":"362e496b","withdrawUnsoldTokens()":"c8bdbfb6"},"id":0}