{"abi":[{"type":"constructor","inputs":[{"name":"_usdt","type":"address","internalType":"address"},{"name":"_usdc","type":"address","internalType":"address"},{"name":"_cofounder","type":"address","internalType":"address"}],"stateMutability":"nonpayable"},{"type":"function","name":"USDC","inputs":[],"outputs":[{"name":"","type":"address","internalType":"contract IERC20"}],"stateMutability":"view"},{"type":"function","name":"USDT","inputs":[],"outputs":[{"name":"","type":"address","internalType":"contract IERC20"}],"stateMutability":"view"},{"type":"function","name":"allowance","inputs":[{"name":"owner","type":"address","internalType":"address"},{"name":"spender","type":"address","internalType":"address"}],"outputs":[{"name":"","type":"uint256","internalType":"uint256"}],"stateMutability":"view"},{"type":"function","name":"approve","inputs":[{"name":"spender","type":"address","internalType":"address"},{"name":"value","type":"uint256","internalType":"uint256"}],"outputs":[{"name":"","type":"bool","internalType":"bool"}],"stateMutability":"nonpayable"},{"type":"function","name":"balanceOf","inputs":[{"name":"account","type":"address","internalType":"address"}],"outputs":[{"name":"","type":"uint256","internalType":"uint256"}],"stateMutability":"view"},{"type":"function","name":"buyWithUSDC","inputs":[{"name":"usdcAmount","type":"uint256","internalType":"uint256"}],"outputs":[],"stateMutability":"nonpayable"},{"type":"function","name":"buyWithUSDT","inputs":[{"name":"usdtAmount","type":"uint256","internalType":"uint256"}],"outputs":[],"stateMutability":"nonpayable"},{"type":"function","name":"calculateTokenAmount","inputs":[{"name":"usdAmount","type":"uint256","internalType":"uint256"}],"outputs":[{"name":"","type":"uint256","internalType":"uint256"}],"stateMutability":"view"},{"type":"function","name":"cofounderVesting","inputs":[],"outputs":[{"name":"","type":"address","internalType":"contract TokenVesting"}],"stateMutability":"view"},{"type":"function","name":"decimals","inputs":[],"outputs":[{"name":"","type":"uint8","internalType":"uint8"}],"stateMutability":"view"},{"type":"function","name":"mintTokens","inputs":[{"name":"amount","type":"uint256","internalType":"uint256"}],"outputs":[],"stateMutability":"nonpayable"},{"type":"function","name":"name","inputs":[],"outputs":[{"name":"","type":"string","internalType":"string"}],"stateMutability":"view"},{"type":"function","name":"owner","inputs":[],"outputs":[{"name":"","type":"address","internalType":"address"}],"stateMutability":"view"},{"type":"function","name":"renounceOwnership","inputs":[],"outputs":[],"stateMutability":"nonpayable"},{"type":"function","name":"saleActive","inputs":[],"outputs":[{"name":"","type":"bool","internalType":"bool"}],"stateMutability":"view"},{"type":"function","name":"setPrice","inputs":[{"name":"newPrice","type":"uint256","internalType":"uint256"}],"outputs":[],"stateMutability":"nonpayable"},{"type":"function","name":"setSaleStatus","inputs":[{"name":"active","type":"bool","internalType":"bool"}],"outputs":[],"stateMutability":"nonpayable"},{"type":"function","name":"symbol","inputs":[],"outputs":[{"name":"","type":"string","internalType":"string"}],"stateMutability":"view"},{"type":"function","name":"tokenPrice","inputs":[],"outputs":[{"name":"","type":"uint256","internalType":"uint256"}],"stateMutability":"view"},{"type":"function","name":"totalRaisedUSDC","inputs":[],"outputs":[{"name":"","type":"uint256","internalType":"uint256"}],"stateMutability":"view"},{"type":"function","name":"totalRaisedUSDT","inputs":[],"outputs":[{"name":"","type":"uint256","internalType":"uint256"}],"stateMutability":"view"},{"type":"function","name":"totalSold","inputs":[],"outputs":[{"name":"","type":"uint256","internalType":"uint256"}],"stateMutability":"view"},{"type":"function","name":"totalSupply","inputs":[],"outputs":[{"name":"","type":"uint256","internalType":"uint256"}],"stateMutability":"view"},{"type":"function","name":"transfer","inputs":[{"name":"to","type":"address","internalType":"address"},{"name":"value","type":"uint256","internalType":"uint256"}],"outputs":[{"name":"","type":"bool","internalType":"bool"}],"stateMutability":"nonpayable"},{"type":"function","name":"transferFrom","inputs":[{"name":"from","type":"address","internalType":"address"},{"name":"to","type":"address","internalType":"address"},{"name":"value","type":"uint256","internalType":"uint256"}],"outputs":[{"name":"","type":"bool","internalType":"bool"}],"stateMutability":"nonpayable"},{"type":"function","name":"transferOwnership","inputs":[{"name":"newOwner","type":"address","internalType":"address"}],"outputs":[],"stateMutability":"nonpayable"},{"type":"function","name":"withdrawUSDC","inputs":[],"outputs":[],"stateMutability":"nonpayable"},{"type":"function","name":"withdrawUSDT","inputs":[],"outputs":[],"stateMutability":"nonpayable"},{"type":"function","name":"withdrawUnsoldTokens","inputs":[{"name":"amount","type":"uint256","internalType":"uint256"}],"outputs":[],"stateMutability":"nonpayable"},{"type":"event","name":"Approval","inputs":[{"name":"owner","type":"address","indexed":true,"internalType":"address"},{"name":"spender","type":"address","indexed":true,"internalType":"address"},{"name":"value","type":"uint256","indexed":false,"internalType":"uint256"}],"anonymous":false},{"type":"event","name":"CofounderVestingCreated","inputs":[{"name":"vestingContract","type":"address","indexed":false,"internalType":"address"},{"name":"amount","type":"uint256","indexed":false,"internalType":"uint256"}],"anonymous":false},{"type":"event","name":"FundsWithdrawn","inputs":[{"name":"token","type":"address","indexed":false,"internalType":"address"},{"name":"amount","type":"uint256","indexed":false,"internalType":"uint256"}],"anonymous":false},{"type":"event","name":"OwnershipTransferred","inputs":[{"name":"previousOwner","type":"address","indexed":true,"internalType":"address"},{"name":"newOwner","type":"address","indexed":true,"internalType":"address"}],"anonymous":false},{"type":"event","name":"PriceUpdated","inputs":[{"name":"oldPrice","type":"uint256","indexed":false,"internalType":"uint256"},{"name":"newPrice","type":"uint256","indexed":false,"internalType":"uint256"}],"anonymous":false},{"type":"event","name":"SaleStatusChanged","inputs":[{"name":"active","type":"bool","indexed":false,"internalType":"bool"}],"anonymous":false},{"type":"event","name":"TokensMinted","inputs":[{"name":"amountToOwner","type":"uint256","indexed":false,"internalType":"uint256"},{"name":"amountToContract","type":"uint256","indexed":false,"internalType":"uint256"}],"anonymous":false},{"type":"event","name":"TokensPurchased","inputs":[{"name":"buyer","type":"address","indexed":true,"internalType":"address"},{"name":"demiAmount","type":"uint256","indexed":false,"internalType":"uint256"},{"name":"paymentAmount","type":"uint256","indexed":false,"internalType":"uint256"},{"name":"paymentToken","type":"address","indexed":false,"internalType":"address"}],"anonymous":false},{"type":"event","name":"Transfer","inputs":[{"name":"from","type":"address","indexed":true,"internalType":"address"},{"name":"to","type":"address","indexed":true,"internalType":"address"},{"name":"value","type":"uint256","indexed":false,"internalType":"uint256"}],"anonymous":false},{"type":"error","name":"ERC20InsufficientAllowance","inputs":[{"name":"spender","type":"address","internalType":"address"},{"name":"allowance","type":"uint256","internalType":"uint256"},{"name":"needed","type":"uint256","internalType":"uint256"}]},{"type":"error","name":"ERC20InsufficientBalance","inputs":[{"name":"sender","type":"address","internalType":"address"},{"name":"balance","type":"uint256","internalType":"uint256"},{"name":"needed","type":"uint256","internalType":"uint256"}]},{"type":"error","name":"ERC20InvalidApprover","inputs":[{"name":"approver","type":"address","internalType":"address"}]},{"type":"error","name":"ERC20InvalidReceiver","inputs":[{"name":"receiver","type":"address","internalType":"address"}]},{"type":"error","name":"ERC20InvalidSender","inputs":[{"name":"sender","type":"address","internalType":"address"}]},{"type":"error","name":"ERC20InvalidSpender","inputs":[{"name":"spender","type":"address","internalType":"address"}]},{"type":"error","name":"OwnableInvalidOwner","inputs":[{"name":"owner","type":"address","internalType":"address"}]},{"type":"error","name":"OwnableUnauthorizedAccount","inputs":[{"name":"account","type":"address","internalType":"address"}]},{"type":"error","name":"ReentrancyGuardReentrantCall","inputs":[]}],"bytecode":{"object":"0x60c060405234801562000010575f80fd5b506040516200244238038062002442833981016040819052620000339162000456565b336040518060400160405280600481526020016344656d6960e01b8152506040518060400160405280600481526020016344454d4960e01b81525081600390816200007f91906200053d565b5060046200008e82826200053d565b5050506001600160a01b038116620000c057604051631e4fbdf760e01b81525f60048201526024015b60405180910390fd5b620000cb8162000270565b5060016006556001600160a01b0381166200011d5760405162461bcd60e51b815260206004820152601160248201527024b73b30b634b21031b7b337bab73232b960791b6044820152606401620000b7565b6001600160a01b03808416608052821660a0526200015a620001476005546001600160a01b031690565b6b0554d9173ae4d397b2000000620002c1565b5f6a887c1bec4a1528c500000090508130826303c267006040516200017f906200042c565b6001600160a01b03948516815293909216602084015260408301526060820152608001604051809103905ff080158015620001bc573d5f803e3d5ffd5b50600c80546001600160a01b0319166001600160a01b0392909216919091179055620001f5306b04cc5cfb4e9abe6eed000000620002c1565b600c546200020d906001600160a01b031682620002c1565b6127106007556008805460ff19166001179055600c54604080516001600160a01b039092168252602082018390527f9999e472ab9916885f6620dc27aab8ad0de90cf2f4870e37a937ce566c86dee9910160405180910390a1505050506200062b565b600580546001600160a01b038381166001600160a01b0319831681179093556040519116919082907f8be0079c531659141344cd1fd0a4f28419497f9722a3daafe3b4186f6b6457e0905f90a35050565b6001600160a01b038216620002ec5760405163ec442f0560e01b81525f6004820152602401620000b7565b620002f95f8383620002fd565b5050565b6001600160a01b0383166200032b578060025f8282546200031f919062000605565b909155506200039d9050565b6001600160a01b0383165f90815260208190526040902054818110156200037f5760405163391434e360e21b81526001600160a01b03851660048201526024810182905260448101839052606401620000b7565b6001600160a01b0384165f9081526020819052604090209082900390555b6001600160a01b038216620003bb57600280548290039055620003d9565b6001600160a01b0382165f9081526020819052604090208054820190555b816001600160a01b0316836001600160a01b03167fddf252ad1be2c89b69c2b068fc378daa952ba7f163c4a11628f55a4df523b3ef836040516200041f91815260200190565b60405180910390a3505050565b61075e8062001ce483390190565b80516001600160a01b038116811462000451575f80fd5b919050565b5f805f6060848603121562000469575f80fd5b62000474846200043a565b925062000484602085016200043a565b915062000494604085016200043a565b90509250925092565b634e487b7160e01b5f52604160045260245ffd5b600181811c90821680620004c657607f821691505b602082108103620004e557634e487b7160e01b5f52602260045260245ffd5b50919050565b601f82111562000538575f81815260208120601f850160051c81016020861015620005135750805b601f850160051c820191505b8181101562000534578281556001016200051f565b5050505b505050565b81516001600160401b038111156200055957620005596200049d565b62000571816200056a8454620004b1565b84620004eb565b602080601f831160018114620005a7575f84156200058f5750858301515b5f19600386901b1c1916600185901b17855562000534565b5f85815260208120601f198616915b82811015620005d757888601518255948401946001909101908401620005b6565b5085821015620005f557878501515f19600388901b60f8161c191681555b5050505050600190811b01905550565b808201808211156200062557634e487b7160e01b5f52601160045260245ffd5b92915050565b60805160a051611651620006935f395f81816102b001528181610c4c01528181610d2b01528181610de601528181610e940152610f6b01525f818161038301528181610512015281816105c50152818161069c015281816109e20152610ac101526116515ff3fe608060405234801561000f575f80fd5b50600436106101c6575f3560e01c80639106d7ba116100fe578063aeccf7351161009e578063dd62ed3e1161006e578063dd62ed3e146103c0578063f02cbb95146103f8578063f2fde38b14610401578063fdba1d0514610414575f80fd5b8063aeccf7351461036b578063c54e44eb1461037e578063d897833e146103a5578063d8fc063d146103b8575f80fd5b806397304ced116100d957806397304ced1461031f578063a24bcf4614610332578063a7c6016014610345578063a9059cbb14610358575f80fd5b80639106d7ba146102fb57806391b7f5ed1461030457806395d89b4114610317575f80fd5b806345f085a611610169578063715018a611610144578063715018a61461029a5780637ff9b596146102a257806389a30271146102ab5780638da5cb5b146102ea575f80fd5b806345f085a61461025257806368428a1b1461026557806370a0823114610272575f80fd5b806323b872dd116101a457806323b872dd1461021d5780632675249b14610230578063313ce56714610239578063362e496b14610248575f80fd5b806306fdde03146101ca578063095ea7b3146101e857806318160ddd1461020b575b5f80fd5b6101d2610427565b6040516101df91906113b9565b60405180910390f35b6101fb6101f636600461141f565b6104b7565b60405190151581526020016101df565b6002545b6040519081526020016101df565b6101fb61022b366004611447565b6104d0565b61020f600a5481565b604051601281526020016101df565b6102506104f3565b005b610250610260366004611480565b6106f4565b6008546101fb9060ff1681565b61020f610280366004611497565b6001600160a01b03165f9081526020819052604090205490565b610250610770565b61020f60075481565b6102d27f000000000000000000000000000000000000000000000000000000000000000081565b6040516001600160a01b0390911681526020016101df565b6005546001600160a01b03166102d2565b61020f60095481565b610250610312366004611480565b610783565b6101d26107d1565b61025061032d366004611480565b6107e0565b61020f610340366004611480565b6108a5565b610250610353366004611480565b6108c6565b6101fb61036636600461141f565b610b23565b610250610379366004611480565b610b30565b6102d27f000000000000000000000000000000000000000000000000000000000000000081565b6102506103b33660046114c4565b610d7e565b610250610dc7565b61020f6103ce3660046114df565b6001600160a01b039182165f90815260016020908152604080832093909416825291909152205490565b61020f600b5481565b61025061040f366004611497565b610fbc565b600c546102d2906001600160a01b031681565b60606003805461043690611510565b80601f016020809104026020016040519081016040528092919081815260200182805461046290611510565b80156104ad5780601f10610484576101008083540402835291602001916104ad565b820191905f5260205f20905b81548152906001019060200180831161049057829003601f168201915b5050505050905090565b5f336104c4818585610ff6565b60019150505b92915050565b5f336104dd858285611008565b6104e8858585611084565b506001949350505050565b6104fb6110e1565b6040516370a0823160e01b81523060048201525f907f00000000000000000000000000000000000000000000000000000000000000006001600160a01b0316906370a0823190602401602060405180830381865afa15801561055f573d5f803e3d5ffd5b505050506040513d601f19601f820116820180604052508101906105839190611548565b90505f81116105c35760405162461bcd60e51b8152602060048201526007602482015266139bc81554d11560ca1b60448201526064015b60405180910390fd5b7f00000000000000000000000000000000000000000000000000000000000000006001600160a01b031663a9059cbb6106046005546001600160a01b031690565b6040516001600160e01b031960e084901b1681526001600160a01b039091166004820152602481018490526044016020604051808303815f875af115801561064e573d5f803e3d5ffd5b505050506040513d601f19601f82011682018060405250810190610672919061155f565b61068e5760405162461bcd60e51b81526004016105ba9061157a565b604080516001600160a01b037f0000000000000000000000000000000000000000000000000000000000000000168152602081018390527feaff4b37086828766ad3268786972c0cd24259d4c87a80f9d3963a3c3d999b0d91015b60405180910390a150565b6106fc6110e1565b305f908152602081905260409020548111156107515760405162461bcd60e51b8152602060048201526014602482015273496e73756666696369656e742062616c616e636560601b60448201526064016105ba565b61076d306107676005546001600160a01b031690565b83611084565b50565b6107786110e1565b6107815f61110e565b565b61078b6110e1565b600780549082905560408051828152602081018490527f945c1c4e99aa89f648fbfe3df471b916f719e16d960fcec0737d4d56bd69683891015b60405180910390a15050565b60606004805461043690611510565b6107e86110e1565b5f811180156107ff57506107fd6002826115b7565b155b61083c5760405162461bcd60e51b815260206004820152600e60248201526d125b9d985b1a5908185b5bdd5b9d60921b60448201526064016105ba565b5f6108486002836115de565b905061086561085f6005546001600160a01b031690565b8261115f565b61086f308261115f565b60408051828152602081018390527fc61c8e2899bd86923bda7268d6d1b42d8e644ff3dedc13d41d5b798e4aa3523791016107c5565b6007545f906108bc83670de0b6b3a76400006115f1565b6104ca91906115de565b6108ce611197565b60085460ff166109125760405162461bcd60e51b815260206004820152600f60248201526e53616c65206e6f742061637469766560881b60448201526064016105ba565b5f81116109615760405162461bcd60e51b815260206004820152601d60248201527f416d6f756e74206d7573742062652067726561746572207468616e203000000060448201526064016105ba565b5f61096b826108a5565b305f908152602081905260409020549091508111156109c05760405162461bcd60e51b8152602060048201526011602482015270496e73756666696369656e742044454d4960781b60448201526064016105ba565b6040516323b872dd60e01b8152336004820152306024820152604481018390527f00000000000000000000000000000000000000000000000000000000000000006001600160a01b0316906323b872dd906064016020604051808303815f875af1158015610a30573d5f803e3d5ffd5b505050506040513d601f19601f82011682018060405250810190610a54919061155f565b610a705760405162461bcd60e51b81526004016105ba9061157a565b610a7b303383611084565b8060095f828254610a8c9190611608565b9250508190555081600a5f828254610aa49190611608565b909155505060408051828152602081018490526001600160a01b037f0000000000000000000000000000000000000000000000000000000000000000169181019190915233907ffee6df20e0b882b05ab84bcc40a45ff3e3ae8062e60ed6ea21c021d96f822b2f906060015b60405180910390a25061076d6001600655565b5f336104c4818585611084565b610b38611197565b60085460ff16610b7c5760405162461bcd60e51b815260206004820152600f60248201526e53616c65206e6f742061637469766560881b60448201526064016105ba565b5f8111610bcb5760405162461bcd60e51b815260206004820152601d60248201527f416d6f756e74206d7573742062652067726561746572207468616e203000000060448201526064016105ba565b5f610bd5826108a5565b305f90815260208190526040902054909150811115610c2a5760405162461bcd60e51b8152602060048201526011602482015270496e73756666696369656e742044454d4960781b60448201526064016105ba565b6040516323b872dd60e01b8152336004820152306024820152604481018390527f00000000000000000000000000000000000000000000000000000000000000006001600160a01b0316906323b872dd906064016020604051808303815f875af1158015610c9a573d5f803e3d5ffd5b505050506040513d601f19601f82011682018060405250810190610cbe919061155f565b610cda5760405162461bcd60e51b81526004016105ba9061157a565b610ce5303383611084565b8060095f828254610cf69190611608565b9250508190555081600b5f828254610d0e9190611608565b909155505060408051828152602081018490526001600160a01b037f0000000000000000000000000000000000000000000000000000000000000000169181019190915233907ffee6df20e0b882b05ab84bcc40a45ff3e3ae8062e60ed6ea21c021d96f822b2f90606001610b10565b610d866110e1565b6008805460ff19168215159081179091556040519081527ff3637cdf61687bb87179d2da614bc1f4aa93c3cbf40282ccd0a15ecad9184cc1906020016106e9565b610dcf6110e1565b6040516370a0823160e01b81523060048201525f907f00000000000000000000000000000000000000000000000000000000000000006001600160a01b0316906370a0823190602401602060405180830381865afa158015610e33573d5f803e3d5ffd5b505050506040513d601f19601f82011682018060405250810190610e579190611548565b90505f8111610e925760405162461bcd60e51b81526020600482015260076024820152664e6f205553444360c81b60448201526064016105ba565b7f00000000000000000000000000000000000000000000000000000000000000006001600160a01b031663a9059cbb610ed36005546001600160a01b031690565b6040516001600160e01b031960e084901b1681526001600160a01b039091166004820152602481018490526044016020604051808303815f875af1158015610f1d573d5f803e3d5ffd5b505050506040513d601f19601f82011682018060405250810190610f41919061155f565b610f5d5760405162461bcd60e51b81526004016105ba9061157a565b604080516001600160a01b037f0000000000000000000000000000000000000000000000000000000000000000168152602081018390527feaff4b37086828766ad3268786972c0cd24259d4c87a80f9d3963a3c3d999b0d91016106e9565b610fc46110e1565b6001600160a01b038116610fed57604051631e4fbdf760e01b81525f60048201526024016105ba565b61076d8161110e565b61100383838360016111c1565b505050565b6001600160a01b038381165f908152600160209081526040808320938616835292905220545f1981101561107e578181101561107057604051637dc7a0d960e11b81526001600160a01b038416600482015260248101829052604481018390526064016105ba565b61107e84848484035f6111c1565b50505050565b6001600160a01b0383166110ad57604051634b637e8f60e11b81525f60048201526024016105ba565b6001600160a01b0382166110d65760405163ec442f0560e01b81525f60048201526024016105ba565b611003838383611293565b6005546001600160a01b031633146107815760405163118cdaa760e01b81523360048201526024016105ba565b600580546001600160a01b038381166001600160a01b0319831681179093556040519116919082907f8be0079c531659141344cd1fd0a4f28419497f9722a3daafe3b4186f6b6457e0905f90a35050565b6001600160a01b0382166111885760405163ec442f0560e01b81525f60048201526024016105ba565b6111935f8383611293565b5050565b6002600654036111ba57604051633ee5aeb560e01b815260040160405180910390fd5b6002600655565b6001600160a01b0384166111ea5760405163e602df0560e01b81525f60048201526024016105ba565b6001600160a01b03831661121357604051634a1406b160e11b81525f60048201526024016105ba565b6001600160a01b038085165f908152600160209081526040808320938716835292905220829055801561107e57826001600160a01b0316846001600160a01b03167f8c5be1e5ebec7d5bd14f71427d1e84f3dd0314c0f7b2291e5b200ac8c7c3b9258460405161128591815260200190565b60405180910390a350505050565b6001600160a01b0383166112bd578060025f8282546112b29190611608565b9091555061132d9050565b6001600160a01b0383165f908152602081905260409020548181101561130f5760405163391434e360e21b81526001600160a01b038516600482015260248101829052604481018390526064016105ba565b6001600160a01b0384165f9081526020819052604090209082900390555b6001600160a01b03821661134957600280548290039055611367565b6001600160a01b0382165f9081526020819052604090208054820190555b816001600160a01b0316836001600160a01b03167fddf252ad1be2c89b69c2b068fc378daa952ba7f163c4a11628f55a4df523b3ef836040516113ac91815260200190565b60405180910390a3505050565b5f6020808352835180828501525f5b818110156113e4578581018301518582016040015282016113c8565b505f604082860101526040601f19601f8301168501019250505092915050565b80356001600160a01b038116811461141a575f80fd5b919050565b5f8060408385031215611430575f80fd5b61143983611404565b946020939093013593505050565b5f805f60608486031215611459575f80fd5b61146284611404565b925061147060208501611404565b9150604084013590509250925092565b5f60208284031215611490575f80fd5b5035919050565b5f602082840312156114a7575f80fd5b6114b082611404565b9392505050565b801515811461076d575f80fd5b5f602082840312156114d4575f80fd5b81356114b0816114b7565b5f80604083850312156114f0575f80fd5b6114f983611404565b915061150760208401611404565b90509250929050565b600181811c9082168061152457607f821691505b60208210810361154257634e487b7160e01b5f52602260045260245ffd5b50919050565b5f60208284031215611558575f80fd5b5051919050565b5f6020828403121561156f575f80fd5b81516114b0816114b7565b6020808252600f908201526e151c985b9cd9995c8819985a5b1959608a1b604082015260600190565b634e487b7160e01b5f52601260045260245ffd5b5f826115c5576115c56115a3565b500690565b634e487b7160e01b5f52601160045260245ffd5b5f826115ec576115ec6115a3565b500490565b80820281158282048414176104ca576104ca6115ca565b808201808211156104ca576104ca6115ca56fea2646970667358221220e91b27bdad81b4cee580b9e9d6c8aa2e9abebef031171206d2f39e3ad3bdf70564736f6c63430008140033608060405234801561000f575f80fd5b5060405161075e38038061075e83398101604081905261002e916100ee565b6001600160a01b0384166100885760405162461bcd60e51b815260206004820152601360248201527f496e76616c69642062656e656669636961727900000000000000000000000000604482015260640160405180910390fd5b5f80546001600160a01b039586166001600160a01b0319918216179091556001805482163317905560028054949095169316929092179092556003919091554260045560055561012e565b80516001600160a01b03811681146100e9575f80fd5b919050565b5f805f8060808587031215610101575f80fd5b61010a856100d3565b9350610118602086016100d3565b6040860151606090960151949790965092505050565b6106238061013b5f395ff3fe608060405234801561000f575f80fd5b50600436106100cb575f3560e01c806378e979251161008857806396132521116100635780639613252114610171578063b6549f751461017a578063fa45a23614610182578063fc0c546a1461018a575f80fd5b806378e979251461014b57806386d1a69f146101545780638da5cb5b1461015e575f80fd5b80630fb5a6b4146100cf5780631a39d8ef146100eb57806338af3eed146100f457806344b1231f1461011e5780635b9400811461012657806363d256ce1461012e575b5f80fd5b6100d860055481565b6040519081526020015b60405180910390f35b6100d860035481565b5f54610106906001600160a01b031681565b6040516001600160a01b0390911681526020016100e2565b6100d861019d565b6100d86101f4565b60075461013b9060ff1681565b60405190151581526020016100e2565b6100d860045481565b61015c61020f565b005b600154610106906001600160a01b031681565b6100d860065481565b61015c6103aa565b6100d8610540565b600254610106906001600160a01b031681565b6007545f9060ff16156101b1575060065490565b5f600454426101c09190610565565b905060055481106101d357505060035490565b600554816003546101e4919061057e565b6101ee9190610595565b91505090565b5f60065461020061019d565b61020a9190610565565b905090565b60075460ff16156102595760405162461bcd60e51b815260206004820152600f60248201526e15995cdd1a5b99c81c995d9bdad959608a1b60448201526064015b60405180910390fd5b5f6102626101f4565b90505f81116102aa5760405162461bcd60e51b81526020600482015260146024820152734e6f20746f6b656e7320746f2072656c6561736560601b6044820152606401610250565b8060065f8282546102bb91906105b4565b90915550506002545f5460405163a9059cbb60e01b81526001600160a01b0391821660048201526024810184905291169063a9059cbb906044016020604051808303815f875af1158015610311573d5f803e3d5ffd5b505050506040513d601f19601f8201168201806040525081019061033591906105c7565b6103735760405162461bcd60e51b815260206004820152600f60248201526e151c985b9cd9995c8819985a5b1959608a1b6044820152606401610250565b6040518181527fa1598fb976f7dd9df63fd18699c54a5744a6a95364166bbd0d77a2f6c8438b1f906020015b60405180910390a150565b6001546001600160a01b031633146103f15760405162461bcd60e51b815260206004820152600a60248201526927b7363c9037bbb732b960b11b6044820152606401610250565b60075460ff16156104365760405162461bcd60e51b815260206004820152600f60248201526e105b1c9958591e481c995d9bdad959608a1b6044820152606401610250565b6007805460ff191660011790556006546003545f9161045491610565565b905080156105105760025460015460405163a9059cbb60e01b81526001600160a01b0391821660048201526024810184905291169063a9059cbb906044016020604051808303815f875af11580156104ae573d5f803e3d5ffd5b505050506040513d601f19601f820116820180604052508101906104d291906105c7565b6105105760405162461bcd60e51b815260206004820152600f60248201526e151c985b9cd9995c8819985a5b1959608a1b6044820152606401610250565b6040518181527fd3dda1e90178815bfcce9e6835272f414b2353c6a301e4ea98e6a7935b74558d9060200161039f565b5f60065460035461020a9190610565565b634e487b7160e01b5f52601160045260245ffd5b8181038181111561057857610578610551565b92915050565b808202811582820484141761057857610578610551565b5f826105af57634e487b7160e01b5f52601260045260245ffd5b500490565b8082018082111561057857610578610551565b5f602082840312156105d7575f80fd5b815180151581146105e6575f80fd5b939250505056fea2646970667358221220684d0cee13cea12bd92822cb802ccb4b4807770eb9cc85ff9f41e03fd48c771c64736f6c63430008140033","linkReferences":{}},"methodIdentifiers":{"USDC()":"89a30271","USDT()":"c54e44eb","allowance(address,address)":"dd62ed3e","approve(address,uint256)":"095ea7b3","balanceOf(address)":"70a08231","buyWithUSDC(uint256)":"aeccf735","buyWithUSDT(uint256)":"a7c60160","calculateTokenAmount(uint256)":"a24bcf46","cofounderVesting()":"fdba1d05","decimals()":"313ce567","mintTokens(uint256)":"97304ced","name()":"06fdde03","owner()":"8da5cb5b","renounceOwnership()":"715018a6","saleActive()":"68428a1b","setPrice(uint256)":"91b7f5ed","setSaleStatus(bool)":"d897833e","symbol()":"95d89b41","tokenPrice()":"7ff9b596","totalRaisedUSDC()":"f02cbb95","totalRaisedUSDT()":"2675249b","totalSold()":"9106d7ba","totalSupply()":"18160ddd","transfer(address,uint256)":"a9059cbb","transferFrom(address,address,uint256)":"23b872dd","transferOwnership(address)":"f2fde38b","withdrawUSDC()":"d8fc063d","withdrawUSDT()":"362e496b","withdrawUnsoldTokens(uint256)":"45f085a6"},"id":0}