{"abi":[{"type":"constructor","inputs":[{"name":"_usdt","type":"address","internalType":"address"},{"name":"_usdc","type":"address","internalType":"address"}],"stateMutability":"nonpayable"},{"type":"function","name":"TOTAL_SUPPLY","inputs":[],"outputs":[{"name":"","type":"uint256","internalType":"uint256"}],"stateMutability":"view"},{"type":"function","name":"USDC","inputs":[],"outputs":[{"name":"","type":"address","internalType":"contract IERC20"}],"stateMutability":"view"},{"type":"function","name":"USDT","inputs":[],"outputs":[{"name":"","type":"address","internalType":"contract IERC20"}],"stateMutability":"view"},{"type":"function","name":"allowance","inputs":[{"name":"owner","type":"address","internalType":"address"},{"name":"spender","type":"address","internalType":"address"}],"outputs":[{"name":"","type":"uint256","internalType":"uint256"}],"stateMutability":"view"},{"type":"function","name":"approve","inputs":[{"name":"spender","type":"address","internalType":"address"},{"name":"value","type":"uint256","internalType":"uint256"}],"outputs":[{"name":"","type":"bool","internalType":"bool"}],"stateMutability":"nonpayable"},{"type":"function","name":"balanceOf","inputs":[{"name":"account","type":"address","internalType":"address"}],"outputs":[{"name":"","type":"uint256","internalType":"uint256"}],"stateMutability":"view"},{"type":"function","name":"buyWithUSDC","inputs":[{"name":"usdcAmount","type":"uint256","internalType":"uint256"}],"outputs":[],"stateMutability":"nonpayable"},{"type":"function","name":"buyWithUSDT","inputs":[{"name":"usdtAmount","type":"uint256","internalType":"uint256"}],"outputs":[],"stateMutability":"nonpayable"},{"type":"function","name":"calculateTokenAmount","inputs":[{"name":"usdAmount","type":"uint256","internalType":"uint256"}],"outputs":[{"name":"","type":"uint256","internalType":"uint256"}],"stateMutability":"view"},{"type":"function","name":"decimals","inputs":[],"outputs":[{"name":"","type":"uint8","internalType":"uint8"}],"stateMutability":"view"},{"type":"function","name":"getContractBalances","inputs":[],"outputs":[{"name":"usdtBalance","type":"uint256","internalType":"uint256"},{"name":"usdcBalance","type":"uint256","internalType":"uint256"}],"stateMutability":"view"},{"type":"function","name":"getSaleStats","inputs":[],"outputs":[{"name":"currentPrice","type":"uint256","internalType":"uint256"},{"name":"tokensSold","type":"uint256","internalType":"uint256"},{"name":"raisedUSDT","type":"uint256","internalType":"uint256"},{"name":"raisedUSDC","type":"uint256","internalType":"uint256"},{"name":"remainingTokens","type":"uint256","internalType":"uint256"},{"name":"isActive","type":"bool","internalType":"bool"}],"stateMutability":"view"},{"type":"function","name":"name","inputs":[],"outputs":[{"name":"","type":"string","internalType":"string"}],"stateMutability":"view"},{"type":"function","name":"owner","inputs":[],"outputs":[{"name":"","type":"address","internalType":"address"}],"stateMutability":"view"},{"type":"function","name":"renounceOwnership","inputs":[],"outputs":[],"stateMutability":"nonpayable"},{"type":"function","name":"saleActive","inputs":[],"outputs":[{"name":"","type":"bool","internalType":"bool"}],"stateMutability":"view"},{"type":"function","name":"setSaleActive","inputs":[{"name":"_active","type":"bool","internalType":"bool"}],"outputs":[],"stateMutability":"nonpayable"},{"type":"function","name":"setTokenPrice","inputs":[{"name":"newPrice","type":"uint256","internalType":"uint256"}],"outputs":[],"stateMutability":"nonpayable"},{"type":"function","name":"symbol","inputs":[],"outputs":[{"name":"","type":"string","internalType":"string"}],"stateMutability":"view"},{"type":"function","name":"tokenPrice","inputs":[],"outputs":[{"name":"","type":"uint256","internalType":"uint256"}],"stateMutability":"view"},{"type":"function","name":"totalRaisedUSDC","inputs":[],"outputs":[{"name":"","type":"uint256","internalType":"uint256"}],"stateMutability":"view"},{"type":"function","name":"totalRaisedUSDT","inputs":[],"outputs":[{"name":"","type":"uint256","internalType":"uint256"}],"stateMutability":"view"},{"type":"function","name":"totalSold","inputs":[],"outputs":[{"name":"","type":"uint256","internalType":"uint256"}],"stateMutability":"view"},{"type":"function","name":"totalSupply","inputs":[],"outputs":[{"name":"","type":"uint256","internalType":"uint256"}],"stateMutability":"view"},{"type":"function","name":"transfer","inputs":[{"name":"to","type":"address","internalType":"address"},{"name":"value","type":"uint256","internalType":"uint256"}],"outputs":[{"name":"","type":"bool","internalType":"bool"}],"stateMutability":"nonpayable"},{"type":"function","name":"transferFrom","inputs":[{"name":"from","type":"address","internalType":"address"},{"name":"to","type":"address","internalType":"address"},{"name":"value","type":"uint256","internalType":"uint256"}],"outputs":[{"name":"","type":"bool","internalType":"bool"}],"stateMutability":"nonpayable"},{"type":"function","name":"transferOwnership","inputs":[{"name":"newOwner","type":"address","internalType":"address"}],"outputs":[],"stateMutability":"nonpayable"},{"type":"function","name":"withdrawUSDC","inputs":[],"outputs":[],"stateMutability":"nonpayable"},{"type":"function","name":"withdrawUSDT","inputs":[],"outputs":[],"stateMutability":"nonpayable"},{"type":"function","name":"withdrawUnsoldTokens","inputs":[],"outputs":[],"stateMutability":"nonpayable"},{"type":"event","name":"Approval","inputs":[{"name":"owner","type":"address","indexed":true,"internalType":"address"},{"name":"spender","type":"address","indexed":true,"internalType":"address"},{"name":"value","type":"uint256","indexed":false,"internalType":"uint256"}],"anonymous":false},{"type":"event","name":"FundsWithdrawn","inputs":[{"name":"token","type":"address","indexed":false,"internalType":"address"},{"name":"amount","type":"uint256","indexed":false,"internalType":"uint256"}],"anonymous":false},{"type":"event","name":"OwnershipTransferred","inputs":[{"name":"previousOwner","type":"address","indexed":true,"internalType":"address"},{"name":"newOwner","type":"address","indexed":true,"internalType":"address"}],"anonymous":false},{"type":"event","name":"PriceUpdated","inputs":[{"name":"oldPrice","type":"uint256","indexed":false,"internalType":"uint256"},{"name":"newPrice","type":"uint256","indexed":false,"internalType":"uint256"}],"anonymous":false},{"type":"event","name":"SaleStatusChanged","inputs":[{"name":"active","type":"bool","indexed":false,"internalType":"bool"}],"anonymous":false},{"type":"event","name":"TokensPurchased","inputs":[{"name":"buyer","type":"address","indexed":true,"internalType":"address"},{"name":"demiAmount","type":"uint256","indexed":false,"internalType":"uint256"},{"name":"paymentAmount","type":"uint256","indexed":false,"internalType":"uint256"},{"name":"paymentToken","type":"address","indexed":false,"internalType":"address"}],"anonymous":false},{"type":"event","name":"Transfer","inputs":[{"name":"from","type":"address","indexed":true,"internalType":"address"},{"name":"to","type":"address","indexed":true,"internalType":"address"},{"name":"value","type":"uint256","indexed":false,"internalType":"uint256"}],"anonymous":false},{"type":"error","name":"ERC20InsufficientAllowance","inputs":[{"name":"spender","type":"address","internalType":"address"},{"name":"allowance","type":"uint256","internalType":"uint256"},{"name":"needed","type":"uint256","internalType":"uint256"}]},{"type":"error","name":"ERC20InsufficientBalance","inputs":[{"name":"sender","type":"address","internalType":"address"},{"name":"balance","type":"uint256","internalType":"uint256"},{"name":"needed","type":"uint256","internalType":"uint256"}]},{"type":"error","name":"ERC20InvalidApprover","inputs":[{"name":"approver","type":"address","internalType":"address"}]},{"type":"error","name":"ERC20InvalidReceiver","inputs":[{"name":"receiver","type":"address","internalType":"address"}]},{"type":"error","name":"ERC20InvalidSender","inputs":[{"name":"sender","type":"address","internalType":"address"}]},{"type":"error","name":"ERC20InvalidSpender","inputs":[{"name":"spender","type":"address","internalType":"address"}]},{"type":"error","name":"OwnableInvalidOwner","inputs":[{"name":"owner","type":"address","internalType":"address"}]},{"type":"error","name":"OwnableUnauthorizedAccount","inputs":[{"name":"account","type":"address","internalType":"address"}]},{"type":"error","name":"ReentrancyGuardReentrantCall","inputs":[]}],"bytecode":{"object":"0x60c060405234801562000010575f80fd5b5060405162001cf238038062001cf28339810160408190526200003391620002ec565b336040518060400160405280600481526020016344656d6960e01b8152506040518060400160405280600481526020016344454d4960e01b81525081600390816200007f9190620003c2565b5060046200008e8282620003c2565b5050506001600160a01b038116620000c057604051631e4fbdf760e01b81525f60048201526024015b60405180910390fd5b620000cb8162000114565b506001600655620000e9306b0aa9b22e75c9a72f6400000062000165565b6001600160a01b039182166080521660a0526127106007556008805460ff19166001179055620004b0565b600580546001600160a01b038381166001600160a01b0319831681179093556040519116919082907f8be0079c531659141344cd1fd0a4f28419497f9722a3daafe3b4186f6b6457e0905f90a35050565b6001600160a01b038216620001905760405163ec442f0560e01b81525f6004820152602401620000b7565b6200019d5f8383620001a1565b5050565b6001600160a01b038316620001cf578060025f828254620001c391906200048a565b90915550620002419050565b6001600160a01b0383165f9081526020819052604090205481811015620002235760405163391434e360e21b81526001600160a01b03851660048201526024810182905260448101839052606401620000b7565b6001600160a01b0384165f9081526020819052604090209082900390555b6001600160a01b0382166200025f576002805482900390556200027d565b6001600160a01b0382165f9081526020819052604090208054820190555b816001600160a01b0316836001600160a01b03167fddf252ad1be2c89b69c2b068fc378daa952ba7f163c4a11628f55a4df523b3ef83604051620002c391815260200190565b60405180910390a3505050565b80516001600160a01b0381168114620002e7575f80fd5b919050565b5f8060408385031215620002fe575f80fd5b6200030983620002d0565b91506200031960208401620002d0565b90509250929050565b634e487b7160e01b5f52604160045260245ffd5b600181811c908216806200034b57607f821691505b6020821081036200036a57634e487b7160e01b5f52602260045260245ffd5b50919050565b601f821115620003bd575f81815260208120601f850160051c81016020861015620003985750805b601f850160051c820191505b81811015620003b957828155600101620003a4565b5050505b505050565b81516001600160401b03811115620003de57620003de62000322565b620003f681620003ef845462000336565b8462000370565b602080601f8311600181146200042c575f8415620004145750858301515b5f19600386901b1c1916600185901b178555620003b9565b5f85815260208120601f198616915b828110156200045c578886015182559484019460019091019084016200043b565b50858210156200047a57878501515f19600388901b60f8161c191681555b5050505050600190811b01905550565b80820180821115620004aa57634e487b7160e01b5f52601160045260245ffd5b92915050565b60805160a0516117cc620005265f395f818161030501528181610ca201528181610da801528181610e9201528181610f4c0152818161104a015261117401525f81816103c50152818161059d0152818161065c0152818161075a01528181610a0201528181610b0801526110f601526117cc5ff3fe608060405234801561000f575f80fd5b50600436106101d1575f3560e01c80638da5cb5b116100fe578063aeccf7351161009e578063dd62ed3e1161006e578063dd62ed3e146103f7578063f02cbb951461042f578063f2fde38b14610438578063ffd2a7d31461044b575f80fd5b8063aeccf735146103ad578063c54e44eb146103c0578063c8bdbfb6146103e7578063d8fc063d146103ef575f80fd5b806395d89b41116100d957806395d89b411461036c578063a24bcf4614610374578063a7c6016014610387578063a9059cbb1461039a575f80fd5b80638da5cb5b1461033f578063902d55a5146103505780639106d7ba14610363575f80fd5b8063362e496b11610174578063715018a611610144578063715018a6146102dc5780637ff9b596146102e4578063841718a6146102ed57806389a3027114610300575f80fd5b8063362e496b1461028a57806368428a1b146102945780636a61e5fc146102a157806370a08231146102b4575f80fd5b806318160ddd116101af57806318160ddd1461024d57806323b872dd1461025f5780632675249b14610272578063313ce5671461027b575f80fd5b806306fdde03146101d5578063095ea7b3146101f3578063136ea67414610216575b5f80fd5b6101dd610468565b6040516101ea9190611578565b60405180910390f35b6102066102013660046115de565b6104f8565b60405190151581526020016101ea565b61021e610511565b6040805196875260208701959095529385019290925260608401526080830152151560a082015260c0016101ea565b6002545b6040519081526020016101ea565b61020661026d366004611606565b61055b565b610251600a5481565b604051601281526020016101ea565b61029261057e565b005b6008546102069060ff1681565b6102926102af36600461163f565b6107b2565b6102516102c2366004611656565b6001600160a01b03165f9081526020819052604090205490565b61029261084e565b61025160075481565b6102926102fb366004611683565b610861565b6103277f000000000000000000000000000000000000000000000000000000000000000081565b6040516001600160a01b0390911681526020016101ea565b6005546001600160a01b0316610327565b6102516b0aa9b22e75c9a72f6400000081565b61025160095481565b6101dd6108aa565b61025161038236600461163f565b6108b9565b61029261039536600461163f565b6108da565b6102066103a83660046115de565b610b6d565b6102926103bb36600461163f565b610b7a565b6103277f000000000000000000000000000000000000000000000000000000000000000081565b610292610dfb565b610292610e73565b61025161040536600461169e565b6001600160a01b039182165f90815260016020908152604080832093909416825291909152205490565b610251600b5481565b610292610446366004611656565b61109b565b6104536110d5565b604080519283526020830191909152016101ea565b606060038054610477906116cf565b80601f01602080910402602001604051908101604052809291908181526020018280546104a3906116cf565b80156104ee5780601f106104c5576101008083540402835291602001916104ee565b820191905f5260205f20905b8154815290600101906020018083116104d157829003601f168201915b5050505050905090565b5f336105058185856111ed565b60019150505b92915050565b5f805f805f80600754600954600a54600b54610541306001600160a01b03165f9081526020819052604090205490565b600854949b939a509198509650945060ff90911692509050565b5f336105688582856111ff565b61057385858561127b565b506001949350505050565b6105866112d8565b6040516370a0823160e01b81523060048201525f907f00000000000000000000000000000000000000000000000000000000000000006001600160a01b0316906370a0823190602401602060405180830381865afa1580156105ea573d5f803e3d5ffd5b505050506040513d601f19601f8201168201806040525081019061060e9190611707565b90505f811161065a5760405162461bcd60e51b81526020600482015260136024820152724e6f205553445420746f20776974686472617760681b60448201526064015b60405180910390fd5b7f00000000000000000000000000000000000000000000000000000000000000006001600160a01b031663a9059cbb61069b6005546001600160a01b031690565b6040516001600160e01b031960e084901b1681526001600160a01b039091166004820152602481018490526044016020604051808303815f875af11580156106e5573d5f803e3d5ffd5b505050506040513d601f19601f82011682018060405250810190610709919061171e565b61074c5760405162461bcd60e51b81526020600482015260146024820152731554d115081d1c985b9cd9995c8819985a5b195960621b6044820152606401610651565b604080516001600160a01b037f0000000000000000000000000000000000000000000000000000000000000000168152602081018390527feaff4b37086828766ad3268786972c0cd24259d4c87a80f9d3963a3c3d999b0d91015b60405180910390a150565b6107ba6112d8565b5f81116108095760405162461bcd60e51b815260206004820152601c60248201527f5072696365206d7573742062652067726561746572207468616e2030000000006044820152606401610651565b600780549082905560408051828152602081018490527f945c1c4e99aa89f648fbfe3df471b916f719e16d960fcec0737d4d56bd696838910160405180910390a15050565b6108566112d8565b61085f5f611305565b565b6108696112d8565b6008805460ff19168215159081179091556040519081527ff3637cdf61687bb87179d2da614bc1f4aa93c3cbf40282ccd0a15ecad9184cc1906020016107a7565b606060048054610477906116cf565b6007545f906108d083670de0b6b3a764000061174d565b61050b9190611764565b6108e2611356565b60085460ff166109265760405162461bcd60e51b815260206004820152600f60248201526e53616c65206e6f742061637469766560881b6044820152606401610651565b5f81116109755760405162461bcd60e51b815260206004820152601d60248201527f416d6f756e74206d7573742062652067726561746572207468616e20300000006044820152606401610651565b5f61097f826108b9565b305f908152602081905260409020549091508111156109e05760405162461bcd60e51b815260206004820152601d60248201527f496e73756666696369656e742044454d4920696e20636f6e74726163740000006044820152606401610651565b6040516323b872dd60e01b8152336004820152306024820152604481018390527f00000000000000000000000000000000000000000000000000000000000000006001600160a01b0316906323b872dd906064016020604051808303815f875af1158015610a50573d5f803e3d5ffd5b505050506040513d601f19601f82011682018060405250810190610a74919061171e565b610ab75760405162461bcd60e51b81526020600482015260146024820152731554d115081d1c985b9cd9995c8819985a5b195960621b6044820152606401610651565b610ac230338361127b565b8060095f828254610ad39190611783565b9250508190555081600a5f828254610aeb9190611783565b909155505060408051828152602081018490526001600160a01b037f0000000000000000000000000000000000000000000000000000000000000000169181019190915233907ffee6df20e0b882b05ab84bcc40a45ff3e3ae8062e60ed6ea21c021d96f822b2f906060015b60405180910390a250610b6a6001600655565b50565b5f3361050581858561127b565b610b82611356565b60085460ff16610bc65760405162461bcd60e51b815260206004820152600f60248201526e53616c65206e6f742061637469766560881b6044820152606401610651565b5f8111610c155760405162461bcd60e51b815260206004820152601d60248201527f416d6f756e74206d7573742062652067726561746572207468616e20300000006044820152606401610651565b5f610c1f826108b9565b305f90815260208190526040902054909150811115610c805760405162461bcd60e51b815260206004820152601d60248201527f496e73756666696369656e742044454d4920696e20636f6e74726163740000006044820152606401610651565b6040516323b872dd60e01b8152336004820152306024820152604481018390527f00000000000000000000000000000000000000000000000000000000000000006001600160a01b0316906323b872dd906064016020604051808303815f875af1158015610cf0573d5f803e3d5ffd5b505050506040513d601f19601f82011682018060405250810190610d14919061171e565b610d575760405162461bcd60e51b81526020600482015260146024820152731554d110c81d1c985b9cd9995c8819985a5b195960621b6044820152606401610651565b610d6230338361127b565b8060095f828254610d739190611783565b9250508190555081600b5f828254610d8b9190611783565b909155505060408051828152602081018490526001600160a01b037f0000000000000000000000000000000000000000000000000000000000000000169181019190915233907ffee6df20e0b882b05ab84bcc40a45ff3e3ae8062e60ed6ea21c021d96f822b2f90606001610b57565b610e036112d8565b305f9081526020819052604090205480610e575760405162461bcd60e51b81526020600482015260156024820152744e6f20746f6b656e7320746f20776974686472617760581b6044820152606401610651565b610b6a30610e6d6005546001600160a01b031690565b8361127b565b610e7b6112d8565b6040516370a0823160e01b81523060048201525f907f00000000000000000000000000000000000000000000000000000000000000006001600160a01b0316906370a0823190602401602060405180830381865afa158015610edf573d5f803e3d5ffd5b505050506040513d601f19601f82011682018060405250810190610f039190611707565b90505f8111610f4a5760405162461bcd60e51b81526020600482015260136024820152724e6f205553444320746f20776974686472617760681b6044820152606401610651565b7f00000000000000000000000000000000000000000000000000000000000000006001600160a01b031663a9059cbb610f8b6005546001600160a01b031690565b6040516001600160e01b031960e084901b1681526001600160a01b039091166004820152602481018490526044016020604051808303815f875af1158015610fd5573d5f803e3d5ffd5b505050506040513d601f19601f82011682018060405250810190610ff9919061171e565b61103c5760405162461bcd60e51b81526020600482015260146024820152731554d110c81d1c985b9cd9995c8819985a5b195960621b6044820152606401610651565b604080516001600160a01b037f0000000000000000000000000000000000000000000000000000000000000000168152602081018390527feaff4b37086828766ad3268786972c0cd24259d4c87a80f9d3963a3c3d999b0d91016107a7565b6110a36112d8565b6001600160a01b0381166110cc57604051631e4fbdf760e01b81525f6004820152602401610651565b610b6a81611305565b6040516370a0823160e01b81523060048201525f9081906001600160a01b037f000000000000000000000000000000000000000000000000000000000000000016906370a0823190602401602060405180830381865afa15801561113b573d5f803e3d5ffd5b505050506040513d601f19601f8201168201806040525081019061115f9190611707565b6040516370a0823160e01b81523060048201527f00000000000000000000000000000000000000000000000000000000000000006001600160a01b0316906370a0823190602401602060405180830381865afa1580156111c1573d5f803e3d5ffd5b505050506040513d601f19601f820116820180604052508101906111e59190611707565b915091509091565b6111fa8383836001611380565b505050565b6001600160a01b038381165f908152600160209081526040808320938616835292905220545f19811015611275578181101561126757604051637dc7a0d960e11b81526001600160a01b03841660048201526024810182905260448101839052606401610651565b61127584848484035f611380565b50505050565b6001600160a01b0383166112a457604051634b637e8f60e11b81525f6004820152602401610651565b6001600160a01b0382166112cd5760405163ec442f0560e01b81525f6004820152602401610651565b6111fa838383611452565b6005546001600160a01b0316331461085f5760405163118cdaa760e01b8152336004820152602401610651565b600580546001600160a01b038381166001600160a01b0319831681179093556040519116919082907f8be0079c531659141344cd1fd0a4f28419497f9722a3daafe3b4186f6b6457e0905f90a35050565b60026006540361137957604051633ee5aeb560e01b815260040160405180910390fd5b6002600655565b6001600160a01b0384166113a95760405163e602df0560e01b81525f6004820152602401610651565b6001600160a01b0383166113d257604051634a1406b160e11b81525f6004820152602401610651565b6001600160a01b038085165f908152600160209081526040808320938716835292905220829055801561127557826001600160a01b0316846001600160a01b03167f8c5be1e5ebec7d5bd14f71427d1e84f3dd0314c0f7b2291e5b200ac8c7c3b9258460405161144491815260200190565b60405180910390a350505050565b6001600160a01b03831661147c578060025f8282546114719190611783565b909155506114ec9050565b6001600160a01b0383165f90815260208190526040902054818110156114ce5760405163391434e360e21b81526001600160a01b03851660048201526024810182905260448101839052606401610651565b6001600160a01b0384165f9081526020819052604090209082900390555b6001600160a01b03821661150857600280548290039055611526565b6001600160a01b0382165f9081526020819052604090208054820190555b816001600160a01b0316836001600160a01b03167fddf252ad1be2c89b69c2b068fc378daa952ba7f163c4a11628f55a4df523b3ef8360405161156b91815260200190565b60405180910390a3505050565b5f6020808352835180828501525f5b818110156115a357858101830151858201604001528201611587565b505f604082860101526040601f19601f8301168501019250505092915050565b80356001600160a01b03811681146115d9575f80fd5b919050565b5f80604083850312156115ef575f80fd5b6115f8836115c3565b946020939093013593505050565b5f805f60608486031215611618575f80fd5b611621846115c3565b925061162f602085016115c3565b9150604084013590509250925092565b5f6020828403121561164f575f80fd5b5035919050565b5f60208284031215611666575f80fd5b61166f826115c3565b9392505050565b8015158114610b6a575f80fd5b5f60208284031215611693575f80fd5b813561166f81611676565b5f80604083850312156116af575f80fd5b6116b8836115c3565b91506116c6602084016115c3565b90509250929050565b600181811c908216806116e357607f821691505b60208210810361170157634e487b7160e01b5f52602260045260245ffd5b50919050565b5f60208284031215611717575f80fd5b5051919050565b5f6020828403121561172e575f80fd5b815161166f81611676565b634e487b7160e01b5f52601160045260245ffd5b808202811582820484141761050b5761050b611739565b5f8261177e57634e487b7160e01b5f52601260045260245ffd5b500490565b8082018082111561050b5761050b61173956fea2646970667358221220f7fc33cc33648337342b60610fa4f299fa8cc54abea43345a3139f2c07c57ca664736f6c63430008140033","linkReferences":{}},"methodIdentifiers":{"TOTAL_SUPPLY()":"902d55a5","USDC()":"89a30271","USDT()":"c54e44eb","allowance(address,address)":"dd62ed3e","approve(address,uint256)":"095ea7b3","balanceOf(address)":"70a08231","buyWithUSDC(uint256)":"aeccf735","buyWithUSDT(uint256)":"a7c60160","calculateTokenAmount(uint256)":"a24bcf46","decimals()":"313ce567","getContractBalances()":"ffd2a7d3","getSaleStats()":"136ea674","name()":"06fdde03","owner()":"8da5cb5b","renounceOwnership()":"715018a6","saleActive()":"68428a1b","setSaleActive(bool)":"841718a6","setTokenPrice(uint256)":"6a61e5fc","symbol()":"95d89b41","tokenPrice()":"7ff9b596","totalRaisedUSDC()":"f02cbb95","totalRaisedUSDT()":"2675249b","totalSold()":"9106d7ba","totalSupply()":"18160ddd","transfer(address,uint256)":"a9059cbb","transferFrom(address,address,uint256)":"23b872dd","transferOwnership(address)":"f2fde38b","withdrawUSDC()":"d8fc063d","withdrawUSDT()":"362e496b","withdrawUnsoldTokens()":"c8bdbfb6"},"id":0}